:020000040800F2
:1000000010070020A90100089D1B0008251B0008FF
:10001000991B00081D0B0008811C0008000000004F
:10002000000000000000000000000000A51B000808
:10003000210B000800000000A11B0008A91B0008FC
:10004000C3010008C3010008C3010008C301000880
:10005000C3010008C3010008C3010008C301000870
:10006000C3010008C3010008C3010008C301000860
:10007000C3010008C3010008C3010008C301000850
:10008000C3010008C3010008C3010008C301000840
:10009000C3010008C3010008C3010008C301000830
:1000A000C3010008C3010008C3010008C301000820
:1000B000C3010008C3010008C3010008C301000810
:1000C000C3010008C3010008C3010008C301000800
:1000D000C3010008751C0008C3010008C301000823
:1000E000C3010008C3010008C301000800F002F8C2
:1000F00000F04AF80AA090E8000C82448344AAF178
:100100000107DA4501D100F03FF8AFF2090EBAE875
:100110000F0013F0010F18BFFB1A43F0010318473B
:1001200080370000A0370000103A24BF78C878C19B
:10013000FAD8520724BF30C830C144BF04680C60ED
:10014000704700000023002400250026103A28BF35
:1001500078C1FBD8520728BF30C148BF0B60704739
:10016000662903F02D82642900F07E80002070470C
:100170001FB500F03DFB04000020002102F0AEFDA1
:10018000E0601FBD10B510BD00F052FC1146FFF736
:10019000EFFF01F087FD00F070FC03B4FFF7F2FF02
:1001A00003BC00F0B3FC0000094880470948004741
:1001B000FEE7FEE7FEE7FEE7FEE7FEE7FEE7FEE717
:1001C000FEE7FEE704480549054A064B7047000074
:1001D000AD1B0008ED0000081001002010070020F2
:1001E00010030020100300200FB4044910B503AA27
:1001F000029800F0EBFA10BC5DF814FB70000020D0
:100200002DE9F0410E460446002020622046E168B8
:10021000884730B3252805D0D4E901219047206ACA
:10022000401CF2E7E168204600278847050018D007
:10023000A5F14100192802D820354FF40067324655
:10024000294620462760FFF78BFF40B1012804D0E4
:10025000F61D26F007060836D8E7361DD6E72846ED
:10026000DAE7206ABDE8F0812DE9F0410646002476
:1002700010687529314616A510D0AFF3008000280C
:1002800002DA404213A507E031688A0701D512A5BA
:1002900002E0490704D511A5012401E0AFF3008075
:1002A00000210A2206F1240709E0B0FBF2FCB0FBB2
:1002B000F2F302FB1C00303078541846491C002829
:1002C000F3D123462A463046BDE8F04100F016B887
:1002D000000000002D0000002B00000020000000A6
:1002E00070477047704710B500F086FA006810BD7F
:1002F00010B5044600F080FA046010BD2DE9F04707
:100300000D4699469246044600F124080168880685
:1003100004D5E06921F01001216000E00120A8422D
:1003200001DD471B00E00027A1697A1902EB0900F3
:10033000081AA0612078C00602D42046AFF30080DE
:10034000002608E0D4E901211AF806009047206A47
:10035000401C761C20624E45F4DB2078C0060AD58E
:100360002046AFF3008006E0D4E901213020904719
:10037000206A401C2062381EA7F10107F4DC07E068
:10038000D4E9012118F805009047206A401C20623A
:10039000281EA5F10105F3DC2046AFF3008020788C
:1003A000000602D50220BDE8F0870120FBE72DE919
:1003B000FF4F0C461E464FF0FF378BB0D2E90001CD
:1003C000DDF860800A908A46C1F30A5505B93D46BA
:1003D000002108464FF00000BAF1000F00F4400081
:1003E00005DA00EB80004FF4400101EA50004FEACB
:1003F0009059B9F1010F00DDB9460A9850EA4A0058
:100400000ED044F61050A5F2FF3545432F14B8F135
:10041000000F1ED07542291E1EDDC9F100021CE02E
:10042000B8F1010F4FF0000001D0302103E0F2439A
:1004300005E02154401CB042FBDB30460022002185
:1004400021540B99C1F80880C1E900200FB0BDE824
:10045000F08FBD1B6D1CDEE74A4600DA694206A834
:1004600000F06CFA06AB93E8070003AB83E80700E3
:1004700050460A9901F098FC8DE80700A0F500505D
:100480001F3800900398002D0ADD42F21F014A46F2
:100490000844002303A90390684601F001FF09E026
:1004A000A0F500504A461F38002303A90390684670
:1004B00001F00BFF8DE807000004000C03D04FF0A3
:1004C000FF30410800E01046B8F1000F03D00022D1
:1004D000009215461EE0751E05D400F091F93032E9
:1004E00062556D1EF9D5B3460122084302D00022A1
:1004F0007F1C04E02078302801D100227F1E002AD2
:10050000099784D01DE0112D07DA00F079F9303217
:1005100062556D1C50EA0102F5D1084302D00098E3
:10052000C8B10EE00021681E05E0235C625C6354E4
:100530002254401E491C8142F7DBAB46A81B401EDB
:100540000990002004F80B000B98099AC0F8088065
:10055000C0E9002B7AE711264FF0000857E72DE994
:10056000F04F88460446D21D22F0070191B0D1E930
:100570000001CDE90A0101F0DFFF02460B98C00F30
:1005800001D02D2007E02068810701D52B2002E053
:10059000202101EAC000032A099001D0072A05DBC7
:1005A00003464146204600F089F90BE12078800699
:1005B00001D5E06900E00620B8F1650F814606D05C
:1005C000B8F1660F18D0B8F1670F70D131E0002094
:1005D000B9F1110F009001DB112301E009F10103D2
:1005E0000AAA01A90CA8FFF7E2FEDDE90C700026BB
:1005F00009F10105834647E001204B4600904FF08A
:1006000000470AAA01A90CA8FFF7D1FEDDE90DB049
:100610000C995D46002610B909F101000D18B9EBDF
:10062000050003D4C0F1FF3609F10105A5EB09006F
:100630002BE0B9F1010F01DA4FF001090020B9F107
:10064000110F0090484601DD112300E003460AAA7D
:1006500001A90CA8FFF7ABFEDDE90C704D460026A2
:100660008346207800070AD4AB4500DA5D4601A82E
:10067000012D04DD411911F8011C302907D04F4527
:1006800002DA17F1040F04DA012082460FE06D1E32
:10069000EEE7002F02DCED1B3E4403E0781CA8428D
:1006A00000DD7D1CB81B00F1010A4FF000472078E7
:1006B000000703D4AA4501DB4FF0FF3A0021B7F150
:1006C000004F0DF143088DF8431024D002202B2356
:1006D000002F01DA7F422D230A21021EA0F1010022
:1006E00000DC5FB197FBF1FC97FBF1F201FB1C7C96
:1006F00017460CF1300C08F801CDEEE7A8F1010027
:1007000003702188090501D5452100E06521A0F18C
:10071000010800F8011C09980FA9A1EB0807FF1DAB
:1007200000B10120411901EBEA70A1693844081AAF
:10073000401EA0612078C00602D42046AFF300809E
:10074000099828B1D4E901219047206A401C206211
:100750002078C00622D52046AFF300801EE0002E90
:1007600004DBB34502DD01A8805D00E03020D4E960
:1007700001219047206A401C2062761CAAF10100EA
:100780005FEA000A0AD100F033F8C0680168405CF3
:10079000D4E901219047206A401C2062281EA5F15F
:1007A0000105DCDC07E0D4E9012118F8010B9047D2
:1007B000206A401C2062381EA7F10107F3DC2046A6
:1007C000AFF30080032011B041E60000074B70B585
:1007D0000D467B4400F05FF80446284600F020F9FF
:1007E00010B14FF0FF3070BD204670BDAF14000057
:1007F000004870473000002000487047100000207B
:1008000030B5B0F10A0271F100034FEA900E4EEAE2
:10081000817EB0EB0E0061EB91014FEA101E4EEAB3
:10082000017E10EB0E0041EB11114FEA102E4EEA43
:10083000016E10EB0E0041EB11214FEA104E4EEA13
:10084000014E10EB0E0041EB1141401841F1000147
:100850004FEAD00040EA41704FEAD1014FEA8104EB
:1008600044EA907410EB800544EB01046D1944EBED
:100870000404521BA3414FF0000348BF0A3200D5C5
:1008800030BD401C41F1000130BD000001694A1C2F
:1008900002610878704700B58FB0CDE901310021C1
:1008A000059105497944CDE9031011466846FFF7E3
:1008B000A7FC0FB000BD0000E5FFFFFF2DE9F041F0
:1008C0001F46044603260168072A01F4006004DB82
:1008D00008B116A505E016A503E008B115A500E0CE
:1008E00015A521F010002060A069C01EA0610FB105
:1008F000401EA0612046AFF300804FB1D4E9012132
:1009000038469047206A401C2062C01C206206E0E6
:10091000206AFAE7D4E9012115F8010B9047761E09
:10092000F8D22046AFF30080BDE8F0814E414E0082
:100930006E616E00494E4600696E66002DE9F04713
:10094000814616468AB0354878440DC88DE80D00BA
:1009500032487844801C03AC0DC884E80D0041F691
:100960009B300844372190FBF1F290FBF1F5A5F1A3
:10097000800501FB12041B3C02D56442012000E00B
:100980000020DFF898A080460027FA44AAF1BE0AAA
:100990000EE0E0070AD03246684607EB4701012324
:1009A0000AEB810101F091FC8DE8070064107F1CC7
:1009B000002CEED1194F7F44AE3F19E0E80715D067
:1009C00007EB04100DF1180A90E80E008AE80E00FB
:1009D000C068F04201D1981908903246012306A957
:1009E00003A801F072FC03AB83E807006D10641CE0
:1009F000002DE3D14FF0010332466946B8F1000FF4
:100A000003A802D001F04CFC01E001F05EFCC9E952
:100A10000001C9F808200AB0BDE8F087102F0000D7
:100A2000007B00F0800070470048704710000020F5
:100A30007546FFF7F9FFAE4605006946534620F0BC
:100A40000700854618B020B5FFF7BCFBBDE8204085
:100A50004FF000064FF000074FF000084FF0000B7A
:100A6000AC46ACE8C009ACE8C009ACE8C009ACE8E9
:100A7000C00921F007018D46704710B50446AFF359
:100A800000802046BDE81040FFF787BB4FF0013CD7
:100A900050F8042B51F8043B9A4221D1A2EB0C03ED
:100AA000934313EACC1317D150F8042B51F8043BAD
:100AB0009A4215D1A2EB0C03934313EACC130BD14A
:100AC00050F8042B51F8043B9A4209D1A2EB0C03D5
:100AD000934313EACC13DBD04FF00000704700BF04
:100AE000D01A01BAB1FA81F101F0180122FA01F02D
:100AF000CB40DBB2C0B2C01AC1F120012CFA01F325
:100B0000D11A914311EAC311E6D170470149182067
:100B1000ABBEFEE72600020070470000FEE70000C3
:100B200070470000EFF3108072B600BFFEE70000D0
:100B3000014690F82100022816D10868D1E90FC3B8
:100B4000026822F00E020260026822F001020260D6
:100B5000012000FA03F2CCF8042081F821000020E3
:100B6000002281F8202070470420886301200022A1
:100B700081F820207047000080B590F821100229EC
:100B800024D10268116821F00E0111602F21136831
:100B9000C4F202018A4240F20401C4F2020123F0CD
:100BA0000103136016DD3023C4F202039A421DD004
:100BB0004423C4F202039A421CD05823C4F2020315
:100BC0009A421DD14FF4803322E000BF042181639B
:100BD000012080BD0823C4F202039A420ED01C23D8
:100BE000C4F202039A420BD1102311E04FF4807338
:100BF0000EE000BF4FF480530AE000BF012307E07E
:100C000001F1680C4FF08073624508BF4FF4801308
:100C10000B60416B4FF48072028401B18847002061
:100C200080BD00002DE9F04F82B00E68002E00F06C
:100C3000FD8041F20042C4F20102042340F2004E62
:100C4000904208BF03234FF6FF7CC4F2010E0093CD
:100C500000240123C1F2100C4FF0000A4FF00009EC
:100C600046E000BF012504F00C030F279F402BEA4C
:100C7000070705FA03F33B4342F82630D1F804B0E6
:100C80005FEACB32DEF8002054BF22EA080242EAD3
:100C90000802CEF80020DEF804205FEA8B3354BF50
:100CA00022EA080242EA0802CEF804205FEACB23D7
:100CB000DEF8082054BF22EA080242EA08025FEA8E
:100CC0008B2340F20C43CEF80820C4F201031A68CB
:100CD00054BF22EA080242EA08021A6001230E68A1
:100CE0000AF1010A36FA0AF204F1040400F09E80C7
:100CF00003FA0AF816EA080FF1D04A68624511DCD7
:100D0000122A55D8DFE802F0340A444854545454A7
:100D10005454545454545454544C5000D1F80C90DE
:100D200046E000BF4FF6FF75C1F22105AA420FDC75
:100D30000025C1F21105AA421AD00025C1F2120500
:100D4000AA4215D00025C1F22105AA4210D02FE0F9
:100D50000025C1F22205AA420AD00025C1F23105C0
:100D6000AA4205D00025C1F23205AA4220D100BF17
:100D70008A684AB1012A14BFC0F81480C0F81080F4
:100D80004FF0080914E000BF4FF0040910E000BF65
:100D9000CA6802F108090BE04FF0000908E000BF43
:100DA000CA6802F1040903E0CA6802F10C0900BF35
:100DB00022460546BAF1080F24BF203A04352E68B2
:100DC0000F279740BE4309FA02F232432A60CA79DC
:100DD000D2067FF584AF41F21803C4F202031A6809
:100DE0004FEA9A0642F001021A601A6840F60003C0
:100DF00002F001020192019AAEF57E7252F826B01D
:100E0000C4F2010398420FD040F60043C4F201033C
:100E100098423FF427AF41F20003C4F20103009D62
:100E2000984208BF02251EE700251CE702B0BDE876
:100E3000F08F000040F20810C2F200000068704716
:100E400040F2000040F20811C2F20000C2F20001BC
:100E500000780A68104408607047000080B542F2CC
:100E60000000C4F20200016841F01001016003209B
:100E700000F08AF8002000F005F800F027F80020C4
:100E800080BD000070B540F20006C2F2000640F2DC
:100E900008013278C2F200014FF47A730968B3FB9B
:100EA000F2F20446B1FBF2F1084600F05FFB0F2CB2
:100EB0004FF0010508D838B94FF0FF302146002225
:100EC000002500F035F87460284670BD82B041F20C
:100ED0001800C4F202000168022241F00101016021
:100EE000016801F0010101910199416841F08051CF
:100EF0004160406800F08050009000980420C4F2E7
:100F00000100016862F31A61016002B070470000DD
:100F1000002848BF704700F01F01012202FA01F1CA
:100F20004EF200124009CEF2000242F82010704743
:100F300010B54EF60C5CCEF2000CDCF80030C3F3BA
:100F4000022E8EF00704042C28BF0424BEF10303F4
:100F50004FF0FF3E0EFA04F438BF0023A14399403E
:100F60000EFA03F39A4300F00F03043B114363446A
:100F700009010C3300F16042B0F1FF3FC8BF02F538
:100F80006443197010BD00004EF60C51CEF2000102
:100F90000A684FF6FF031A4060F30A2242F08060AD
:100FA00040F0FD70086070472DE9F04381B00028E3
:100FB00000F0858042F20008C4F202080446D8F826
:100FC00000000D4600F0070088420CD2D8F800005F
:100FD00020F007002843C8F80000D8F8000000F00F
:100FE0000700A8426BD1206841F204098107C4F2CE
:100FF000020917D5410705D5D9F8001041F4E06181
:10100000C9F80010010705D5D9F8001041F4605166
:10101000C9F80010D9F80010A26821F0F0011143BE
:10102000C9F80010C00741D1D8F8000000F007004F
:10103000A8420CD9D8F8000020F007002843C8F8CF
:101040000000D8F8000000F00700A84237D120685F
:10105000410707D5D9F80010E26821F4E061114397
:10106000C9F80010000708D5D9F80000216920F45C
:10107000605040EAC100C9F80000D9F8002002F031
:101080000C00082841F20020C0F27A0050D143F64B
:101090008E03C2F38341C0F60003595CD2033BD4F4
:1010A00040F60010C0F23D00484341E0606802286D
:1010B0000AD001282AD159F8041C890308D4012038
:1010C00001B0BDE8F08300BF59F8041C8901F6D5D2
:1010D000D9F8001021F003010843C9F80000FFF718
:1010E000A9FE064641F28837D9F80000616800F091
:1010F0000C00B0EB810F97D0FFF79CFE801BB8422D
:10110000F2D9032001B0BDE8F08300BF59F8041CF8
:101110008907D4D5DCE700BFD9F8002043F6740373
:10112000C2F34042C0F600039A5C4843B0FBF2F0C1
:10113000D9F8001043F67602C1F30311C0F600029D
:10114000515C40F2080220FA01F140F20400C2F2C0
:1011500000000068C2F200021160FFF793FE002059
:1011600001B0BDE8F083000040F2080041F2040144
:10117000C2F20000C4F202010068096843F6860268
:10118000C1F30221C0F60002515CC8407047000064
:1011900040F2080041F20401C2F20000C4F2020170
:1011A0000068096843F68602C1F3C221C0F6000256
:1011B000515CC840704700002DE9F04182B0002822
:1011C00068D00446007841F20006C007C4F2020667
:1011D00025D0706800F00C0004281BD0706800F067
:1011E0000C00082802D17068C00313D4606800287E
:1011F00000F06881B0F5A02F00F07C81B0F5803F51
:1012000000F07C81306820F480303060306820F459
:10121000802076E13068800301D56068D0B3207803
:10122000800718D5706810F00C0F07D0706800F0B8
:101230000C0008286ED17068C0036BD4306880073A
:1012400002D52069012825D13068616920F0F800B5
:1012500040EAC1003060207800071FD420784007A2
:1012600032D4E56995B1706800F00C00082840F0B0
:101270008F80012D0ED07068216A00F480328A427E
:1012800008D1616A00F47010884203D1002002B0D6
:10129000BDE8F081012002B0BDE8F081A06900281E
:1012A00062D00020C4F242200121C0F88014FFF770
:1012B000C1FD0546706A800700F18C80FFF7BAFD1A
:1012C000401B0228F6D92AE1F06910F0805808D1B5
:1012D000F06940F08050F061F06900F080500090BB
:1012E000009847F20007C4F200073868C00529D407
:1012F000386840F480703860FFF79CFD054600BFF9
:101300003868C0051ED4FFF795FD401B6428F7D947
:1013100005E100BF2069002840F20000C4F242202D
:1013200000F0828001210160FFF784FD054600BFC7
:10133000306880073FF588AFFFF77CFD401B02282F
:10134000F6D9ECE0E068002800F08080052800F085
:101350009780012800F09880306A20F00100306208
:10136000306A20F0040092E00020C4F24220002104
:10137000C0F88014FFF75EFD054600BF706A800765
:101380007FF56CAFFFF756FD401B0228F6D9C6E08B
:101390000027C4F2422700203866FFF74BFD022DDC
:1013A00005460BD13068800140F1BE80FFF742FD59
:1013B000401B02284FF00300F4D968E73068800131
:1013C0007FF564AFFFF736FD401B02284FF00300A6
:1013D000F4D95CE740F20800C2F20000006844F66D
:1013E000D351C1F26201A0FB0101480A019000BF84
:1013F00000BF0198411E002801913FF42FAF00BFAC
:101400000198411E002801913FF428AF00BF0198C8
:10141000411E002801913FF421AF00BF0198411EF9
:1014200000280191E4D119E700210160FFF702FDD6
:10143000054600BF306880077FF50DAFFFF7FAFC67
:10144000401B02284FF00300F4D920E7306A20F057
:1014500001003062306A20F004003062FFF7EAFCDD
:10146000054641F2883700BF306A800720D5FFF774
:10147000E1FC401BB8424FF00300F5D907E700BF7D
:10148000306A40F004003062306A40F0010030629F
:10149000FFF7D0FC054641F2883700BF306A80076D
:1014A00006D4FFF7C7FC401BB842F7D937E000BFAE
:1014B000B8F1000F7FF4D5AEF06920F08050F061F4
:1014C000CFE600BF306820F480303060306820F410
:1014D00080203060FFF7AEFC054600BF3068800317
:1014E0007FF59DAEFFF7A6FC401B64284FF003007C
:1014F000F4D9CCE6306840F480203060306840F4A5
:1015000080303060FFF796FC054600BF30688003EE
:101510003FF585AEFFF78EFC401B6428F6D903200B
:1015200002B0BDE8F08100BF206AB0F5803F05D170
:101530007168A26821F40031114371607168626AB8
:1015400021F4741110430843706001203866FFF7DE
:1015500071FC0446306880013FF598AEFFF76AFCE5
:10156000001B02284FF00300F4D990E6411E002032
:10157000B0EB116F1CBF012070474EF21002CEF28B
:10158000000251604EF62351CEF20001F0230B70A1
:10159000072190601160704770470000704700009D
:1015A000B0B582B0026805461068D168546900F091
:1015B0002F03202B01F0200306D12BB1284602B0C7
:1015C000BDE8B04000F0FABA5FEA007C1EBF04F04C
:1015D000010E01F4907414EB0E042DD12B6B084016
:1015E000C10617D5012B15D100200190106801907C
:1015F0005068019001985069400625D4A88DE98D66
:10160000EB8D002B1CBF401A5FEA004140F0CA80FE
:1016100002B0B0BD010645D44006F9D5D0682021FE
:1016200020F04000D060284685F83D1002B0BDE8AB
:10163000B04000F075BA00BFC40718BF11F4807441
:1016400042D1440746D44CE0A86B01684B689CB279
:10165000002CDDD0A98D8C42DAD2EB858369202B5A
:1016600017D0D16821F48071D160516921F0010156
:101670005161516921F040015161202185F83E10EE
:1016800000212963D16821F01001D160FFF750FAE1
:10169000A98DE88D081A81B2284602B0BDE8B04095
:1016A000FFF77ABF95F83D002128B1D1A868B0F5C1
:1016B000805F03D12869002800F08C80286A411CD3
:1016C0002962007850608CE02C6C44F001042C649A
:1016D000440706D5BEF1000F03D02C6C44F0020481
:1016E0002C64840706D5BEF1000F03D02C6C44F0A7
:1016F00004042C64BCF1000F06D553EA0E0303D09A
:101700002B6C43F008032B642B6C002B3FF480AF51
:101710000840800603D5284600F050FA2A68506930
:10172000296C00F0400001F00801401832D0D06868
:1017300020F49070D060506920F001005061286B57
:10174000012803D1D06820F01000D060202085F857
:101750003E00002028635069400615D5506920F0EE
:1017600040005061A86B78B141F6B131C0F600017C
:101770004163FFF701FA00283FF44AAFA86B416BC1
:1017800002B0BDE8B0400847284602B0BDE8B0400E
:10179000FFF704BF2846FFF701FF0020286402B0CE
:1017A000B0BD00BFD16821F49071D160516921F0C2
:1017B00001015161202185F83E1000212963D16883
:1017C00021F0100381B22846D36002B0BDE8B040DA
:1017D000FFF7E2BE286A30F8021B6FF35F21516009
:1017E0002862E88C01380104E8847FF411AFD068E6
:1017F00020F08000D060D06840F04000D06002B09F
:10180000B0BD0000002804BF0120704710B5044699
:1018100090F83D0028B9002084F83C00204600F0F4
:101820005FF8242084F83D002068D4E90212C368E0
:1018300023F40053C360036923F440531A43026145
:10184000D4E904231143C268194341F20C639A435B
:101850001143C1604169A26921F44071114343F60B
:101860000002C4F201029042416103D0FFF77CFC08
:1018700002E000BFFFF78CFC626819214843910029
:10188000B0FBF1F048F21F51C5F2EB11A0FB0123B0
:101890005A096FF0630302FB0300322303EB0010CD
:1018A000A0FB0101F02303EA5113206803EB0212AD
:1018B000C1F3431111448160016921F49041016138
:1018C000416921F02A014161C16841F40051C160C0
:1018D00000202021206484F83D1084F83E1010BDC3
:1018E00070B586B040F60004C4F20104006804F547
:1018F000405100268842049602D006B070BD00BF59
:1019000041F21800C4F20200016802AD41F48041C6
:101910000160016801F4804101910199016841F081
:10192000040101600068294600F00400019001985C
:101930004FF400700290022003900320059020468F
:10194000FFF770F94FF48060CDE9020601200490A2
:1019500020462946FFF766F9252000210022FFF7DF
:10196000E7FA2520FFF7D4FA06B070BD70470000F3
:101970002DE9F04381B0044690F83D0020280DD1B8
:101980000F4600294FF0010000F092801646002A11
:1019900000F08E8094F83C00012803D1022001B0B1
:1019A000BDE8F083012084F83C004FF000092120BD
:1019B0001D46C4F8409084F83D00FFF73BFAA6842A
:1019C000E684A1688046B1F5805F25D120690028B2
:1019D0001CBF38464F463E46074684F83C90E08C94
:1019E00000B3681C20D0002D66D120680BE000BF3A
:1019F00036F8021B00276FF35F214160E18C01394B
:101A0000E184E18C81B30168090675D5002FEFD020
:101A100017F8011BF1E700BF002684F83C90E08C2A
:101A20000028DED120681FE0206802E00168090676
:101A300009D4016809065FBF01685FEA01610168B6
:101A40005FEA0161F2D51FB117F8011B05E000BF85
:101A500036F8021B00276FF35F214160E18C0139EA
:101A6000E184E18C0029E4D1016849061CD4002DF1
:101A700042D0691C0ED10168490615D40168490697
:101A80005CBF01685FEA41610ED401684906F2D586
:101A90000AE000BFFFF7CEF9A0EB08012068A942D9
:101AA0002AD800684006F5D5202084F83D000020A3
:101AB00001B0BDE8F08300BF206800BF01680906DF
:101AC00008D4FFF7B7F9A0EB08012068A942F5D9BF
:101AD00012E000BF17B117F8011B04E036F8021B33
:101AE00000276FF35F214160E18C0139E184E18CD3
:101AF0000029E3D1B8E700BFC16821F4D071C1600B
:101B0000416921F001014161202084F83D0084F801
:101B10003E00002084F83C00032001B0BDE8F083C3
:101B200070470000FEE7000082B041F21800C4F2E6
:101B30000200016841F020010160016801F020010C
:101B400001910199016841F004010160006800F011
:101B500004000090009802B07047000080B540F289
:101B6000C40043F60001C2F20000C4F201010023E8
:101B70004FF00C0C4FF4E13280E80E00C0E9033363
:101B8000C0E905C3C361FFF73DFE002808BF80BD63
:101B9000BDE88040FEF7C6BFFEE70000FEE700009C
:101BA0007047000070470000FFF74AB97047000017
:101BB000406A0021C185C184FFF7F0BC81B090F874
:101BC0003E10222920D18368B3F5805F08D10169D6
:101BD000002941D000F128010A6803685B680AE027
:101BE000014651F8282F13B90369002BF5D003687B
:101BF0005B6803F07F0313700A6801320A60C18DCD
:101C000001390A04C18501D001B070470168CA6872
:101C100022F02002CA60CA6822F48072CA604A694F
:101C200022F001024A61202280F83E20026B012A44
:101C30001CD100220263CB6823F01003CB600B6839
:101C4000DB0605D500920A68009249680091009968
:101C5000818D01B0FFF7A0BC0168826A49686FF30B
:101C60005F2122F8021B8262C9E700BF01B0FFF7C3
:101C70007DBE000040F2C400C2F20000FFF790BC3D
:101C8000FEE7000080B582B0019040F2C400C2F2CD
:101C9000000001A901224FF0FF33FFF769FE019810
:101CA00002B080BD92B0FFF7D9F800240120CDE941
:101CB0000D44CDE90B4408900C904FF4E0104FF424
:101CC00080310225119008A80794CDE90544CDE99B
:101CD0000344CDE90914CDE90F51FFF76DFA28B19E
:101CE000EFF3108072B600BFFEE700BF0F20CDE912
:101CF00003054FF48060CDE9060403A80221059492
:101D0000FFF752F920B1EFF3108072B6FEE700BF83
:101D1000FFF70AFFFFF722FF00260024C4F2340673
:101D20001EA500BF204601F028FA00230022C3F6BA
:101D3000707301F04DFA00230022C4F2100301F089
:101D400047FA42F6185242F2FB13C5F24442C4F27B
:101D5000090301F03DFA82468B4600F06FFF002236
:101D6000334601F035FA804689465046594600F020
:101D700017FF0022334601F02BFA00230022CCF299
:101D8000140300F0C1FF0F4600902846214642464A
:101D90004B460197FEF728FA0134C3E725642C254A
:101DA000662C25660A0000005FEA400C08BF91F02F
:101DB000000F4FEA8C234FEAC12243EA51514FEA08
:101DC0001C5018BF00F5F0404FEA300018BF41F03A
:101DD00000415FEA6C5C00F02980BCF1FF3F08BF66
:101DE00040F080407047130C06BF12044FF0100CF7
:101DF0004FF0000C130E04BF12020CF1080C130F6D
:101E000004BF12010CF1040C930F04BF92000CF1FB
:101E1000020CD30F04BF52000CF1010C11464FF01D
:101E20000002A0F11F00A0EB0C00704711F0004F62
:101E300008BF704731F000413FF4D5AF0B0C06BF2F
:101E400009044FF0100C4FF0000C0B0E04BF0902F8
:101E50000CF1080C0B0F04BF09010CF1040C8B0FE3
:101E600004BF89000CF1020CCB0F04BF49000CF138
:101E7000010CCCF1200322FA03F341EA030102FA38
:101E80000CF2A0EB0C0000F10100704723F07F473B
:101E900020F07F4C80EA030000F00040ACEB070329
:101EA00003F57C5303F1FF032DE9804909B44FEAA0
:101EB000144324EA03484FEA154B25EA0B4E0FF270
:101EC000042606EB13273E7803FB0667C7F50007D9
:101ED00007FB06F64FEAD64606F102064FEA5437EC
:101EE00007FB066CCCF1005C4FEA1C472CEA074C60
:101EF0000CFB06F507FB06F404EB15464FEA9616B5
:101F000049085FEA320234BF00204FF000404FEA38
:101F1000D13706FB07FC4FEA1C4C0CFB0BF7D21B1E
:101F200003FB0CF761EB07010CFB0EF7B0EB07406E
:101F300072EB17420CFB08F734BFA2EB0742B2EB7F
:101F4000074261EB17414FEA0C444FEA910706FB49
:101F500007FC4FEA1C4C0CFB0BF7B0EBC74072EBD5
:101F6000573203FB0CF734BFA2EBC742B2EBC742B8
:101F700061EB57310CFB0EF7B0EBC70072EB5772F9
:101F80000CFB08F734BFA2EBC702B2EBC70261EB50
:101F900057714FEA816141EA92114FEA826242EA47
:101FA00090124FEA806004EBCC04039F4FEAD137D4
:101FB00006FB07FC4FEA1C4C0CFB0BF7D21B03FB88
:101FC0000CF761EB07010CFB0EF7B0EB074072EB6F
:101FD00017420CFB08F734BFA2EB0742B2EB0742F3
:101FE00061EB17414FEA8C5504EB9C244FEA9107B3
:101FF00006FB07FC4FEA1C4C0CFB0BF7B0EBC74091
:1020000072EB573203FB0CF734BFA2EBC742B2EBC3
:10201000C74261EB57310CFB0EF7B0EBC70072EB18
:1020200057720CFB08F734BFA2EBC702B2EBC70232
:1020300061EB57714FEA816141EA92114FEA826286
:1020400042EA90124FEA806015EB4C2544F10004FF
:102050004FEAD13706FB07FC4FEA1C4C0CFB0BF791
:10206000D21B03FB0CF761EB07010CFB0EF7B0EB87
:10207000074072EB17420CFB08F734BFA2EB074294
:10208000B2EB074261EB17414FEA813141EA9241DD
:102090004FEA823242EA90424FEA80304FEA0C76B1
:1020A00015EB1C1544F1000448EA03434EEA0B48C3
:1020B0004FF0000EB2EB080C71EB030724BF624631
:1020C00039464EEB0E0E4FF0000B001852414941BD
:1020D0004BEB0B0BB2EB080C71EB03077BF1000B26
:1020E00024BF624639464EEB0E0E4FF0000B00182F
:1020F000524149414BEB0B0BB2EB080C71EB030760
:102100007BF1000B24BF624639464EEB0E0E51EABE
:10211000020718BF46F0010616EB0E7655F10002D5
:1021200054F1000103D5BDE88901BDE80088BDE890
:102130008901BDE80048B619524141EB0101A3F104
:102140000103704780807F7E7D7C7B7A797877760B
:1021500076757473727171706F6E6E6D6C6C6B6A84
:102160006A69686867666665646463636261616022
:10217000605F5F5E5E5D5D5C5C5B5B5A5A5959589F
:102180005857575656555555545453535252525109
:10219000515050504F4F4F4E4E4D4D4D4C4C4C4B5F
:1021A0004B4B4A4A4A4949494848484747474746A6
:1021B00046464545454444444443434343424242E2
:1021C000424141419C46002B30D477002BD04FEA4E
:1021D00037071CB503B44FF010004FF01001BAF1EF
:1021E000000F06D0BCF1000FDCBF40F0080040F04B
:1021F00008014FF000000FBCBDE810400BF1010BCF
:10220000BBF1010F08BF5FEA170722BF12F10102FD
:1022100011F101014FF0004143F1000300F00040D3
:1022200043EA00007047F9D35708D0E746EA06466C
:102230004FEA164613F1400F1FDD13F1200FDFBFE9
:1022400016430A46002120335B42BED0C3F120076B
:1022500046EA06464FEA164602FA07F746EA070636
:1022600022FA03F2C3F1200701FA07F742EA070254
:1022700021FA03F14FF00003A7E746EA020646EA17
:1022800006464FEA164646EA0106BCBF46EA06463F
:10229000360C4FF000034FF000024FF0000194E7BE
:1022A0002DE9804C70B49A46934691E8380007C8EF
:1022B00031EA400C48BF34EA430C03D5FFF7E6FD92
:1022C000FFF780FFF0BCBDE8008C2DE9804C70B4B6
:1022D0009A46934691E8380007C810F0804F08BF2F
:1022E00013F0804F03D100F005F8FFF76BFFF0BC4F
:1022F000BDE8008C20F07F4723F07F4C80EA03008C
:1023000000F0004007EB0C03A3F57C53A3F1FE03A0
:1023100092F0000F00F0B38095F0000F00F077808E
:102320002DE901494FEA114021EA00484FEA1446DD
:1023300024EA064700FB06FC08FB06F607FB08F844
:1023400018EB06484CEB164C00FB07F718EB074858
:102350004CEB17404FEA124B22EA0B4E4FEA154660
:1023600025EA06470BFB06FC0EFB06F607FB0EFEF6
:102370001EEB064E4CEB164C0BFB07F71EEB074E05
:102380004CEB174B18EB0B0840F1000018EB0E0B51
:1023900058EB000840F100008F1A4FF000014FF099
:1023A00000063CBFC943661B14BFB5EB040C0021FB
:1023B0003CBFC943F61B4FEA174427EA04454FEADE
:1023C0001C472CEA074C04FB076205FB07F70CFBD4
:1023D00005F616EB074642EB174204FB0CFC16EB26
:1023E0000C4642EB1C421BEB060658EB0202414135
:1023F0004EEA8E0E46EA9E0601D5BDE80189B61961
:10240000524141EB0101A3F10103BDE801894FEA0B
:10241000144524EA05464FEA114721EA074C05FB1B
:1024200007F406FB07F70CFB06F111EB074144EB41
:10243000174405FB0CFC11EB0C4144EB1C444FEA28
:10244000124722EA074C05FB07F206FB07F70CFBD5
:1024500006F616EB074642EB174205FB0CFC16EBA3
:102460000C4642EB1C456A1854F1000148BF704706
:10247000B619524141EB0101A3F10103704795F0F8
:10248000000F37D04FEA114221EA02464FEA1447C3
:1024900024EA074C02FB07F106FB07F70CFB06F4E6
:1024A00014EB074441EB174102FB0CFC14EB0C440A
:1024B00041EB1C414FEA154725EA074C02FB07F5A3
:1024C00006FB07F70CFB06F616EB074645EB174530
:1024D00002FB0CFC16EB0C4645EB1C42121951F1A9
:1024E000000148BF7047B619524141EB0101A3F109
:1024F000010370474FEA144524EA05464FEA1147A5
:1025000021EA074C05FB07F106FB07F70CFB06F277
:1025100012EB074241EB174105FB0CFC12EB0C429E
:1025200051EB1C414FF0000648BF7047921841EB39
:102530000101A3F101037047490050EAC12018BF0F
:1025400004204A0D18BF40F0010040F2FF72B2EBC8
:10255000515F08BF40F00200012808BF0520704706
:102560002DE9F74F144694B00021C4E902111599E2
:10257000079121F00045C9498D4206DC1599C4E94F
:10258000000117B00020BDE8F08FC549DFF814A3A3
:10259000A9423CDD0799C44E0029C44FC44A15998D
:1025A000534619DD00F01EFF554506D0C14AC24B07
:1025B00000F018FFC4E900010AE04FF0D352BE4B0F
:1025C00000F010FF32463B4600F00CFFC4E900016A
:1025D00017B00120BDE8F08F00F096FB554506D0FE
:1025E000B44AB54B00F090FBC4E900010AE04FF09B
:1025F000D352B14B00F088FB32463B4600F084FBDF
:10260000C4E9000117B04FF0FF30BDE8F08FAB49CF
:10261000A942159978DB21F0004183468846A84AF3
:10262000A84B00F0D5FD0022A74B00F06DFB00F099
:1026300075FD099000F0A1FD06460F469C4A5346E1
:1026400000F0C6FD43465A4600F0C0FE80468A466A
:10265000984A994B3046394600F0BAFD2A0D0125BB
:102660000B924246534600F0B1FE032DC4E900012F
:1026700039D00B98C1F30A51401A05EB45111139B5
:10268000814230DA9148C346784400EB0510CDF81A
:102690000CA00C90D0E900233046394600F098FD9C
:1026A00002460B46049106905846039900F09AFEA4
:1026B00080468A4602460B465846039900F092FE31
:1026C000049B069A00F08EFE83460C9803913946CF
:1026D000D0E90223304600F07BFD5A46039B00F010
:1026E00081FE6D1CBDE707980028A2BF099817B0AE
:1026F000BDE8F08F616881F000416160099817B012
:102700004042BDE8F08FFFE784461598C1F31301FE
:10271000C0F30A50A0F2F5304FEA601800F01F062F
:10272000C6F12000139000200690079041F4801E0F
:1027300005206D4676B1664A08EB00017A4452F8EE
:10274000213002EB8101B3404A68139922FA01F16A
:10275000194305E05F4908EB0002794451F8221063
:10276000A1FB0E27A1FB0C131A449A4234BF01238C
:10277000002303EB070A05EB8003D3E901B70F44FD
:102780008F4234BF0121002193448B4411B1934502
:1027900002D903E0934501D2012100E00021C3E901
:1027A00001B7514445F82010011EA0F10100C1DC21
:1027B0000298059F00F10050800F12900298DDE909
:1027C0000356800000F0D9FC834628460D9100F0A6
:1027D000EBFC6FF01D0200F027FFCDE90E01304643
:1027E00000F0E2FC6FF03D0200F01EFF80468A46DA
:1027F000384600F0D9FC6FF05D0200F015FF074687
:1028000042465346119100F07FFADDE90E2300F0B5
:102810007BFA5A460D9B00F077FA00250E465A4681
:1028200028460D9B00F0DEFDDDE90E2300F0DAFD09
:102830004246534600F0D6FD3A46119B00F0C6FDD5
:10284000DFF898A0244A534600F0C2FC07468846A9
:10285000234A244B3146284600F0BAFC3A46434608
:1028600000F052FA074688464FF0A84253463146D8
:10287000284600F0ADFC3A46434600F045FA159A6A
:1028800012F0004F04D0129A81F00041524212928D
:10289000C4E90001129817B0BDE8F08FFB21E93FB1
:1028A0007CD90240FB21F93F7370032E8A19A33BA8
:1028B000000040543163621A61B4D03DFB213941BC
:1028C00083C8C96D305FE43F0000E03F5C1000004A
:1028D000D80F0000BA0F0000182D4454FB21F93D19
:1028E0003326A611460B113C2DE9FF4D21F000487F
:1028F00007460C46B8F1795F08DA00F00FFC0028B3
:1029000001BF0020324904B0BDE8F08D3A462346AD
:102910001046194600F05CFC054602462D480E465E
:102920000B460621784400F05DF82A46334600F055
:102930004FFCDDE9022382468B463846214600F0F3
:1029400047FC04460F4652465B462846314600F097
:102950003FFC22463B4600F045FD07468A464FF0C5
:10296000FF322846314600F05FFE1B4A90450ADAE6
:102970003A46534600F036FD04B00022BDE8F04D63
:10298000134B00F023BD154A4245A8BFA8F500151A
:102990004FF00004B8BF124D22462B4600F022FD36
:1029A0000646884622462B460020094900F01AFDBB
:1029B00004460D463A4653463046414600F012FD65
:1029C00004B022462B46BDE8F04D00F0FFBC0000ED
:1029D0000000F03F900D00003333D33F0000E93F8B
:1029E0000000D23F2DE9F0414F1E00EBC701044625
:1029F000D1E9000115461E4637F006020DD02A46E1
:102A0000334600F0E5FB7F1E04EBC703D3E9002348
:102A100000F07AF937F00602F1D1022F25D0042F09
:102A200013D0062F18BFBDE8F0812A46334600F0C8
:102A3000CFFBD4E90A2300F067F92A46334600F0B9
:102A4000C7FBD4E9082300F05FF92A46334600F0BB
:102A5000BFFBD4E9062300F057F92A46334600F0BD
:102A6000B7FBD4E9042300F04FF92A46334600F0BF
:102A7000AFFBD4E9022300F047F92A46334600F0C1
:102A8000A7FBD4E90023BDE8F04100F03DB9000008
:102A90002DE9FF4D054621F0004084B00C46B0F111
:102AA000795F0BDA2846FFF747FD042808BF00F0DE
:102AB0006FF8284608B02146BDE8F08D2A460B463F
:102AC000104600F085FB06460F462A46234600F0D6
:102AD0007FFB804626488A4632463B46052178449D
:102AE000FFF780FF83461098029160B3214A224B82
:102AF0004046514600F06CFBCDE900015A46404685
:102B00005146029B00F064FB82468846DDE90601DF
:102B10004FF0FF3200F088FD5246434600F062FC61
:102B200032463B4600F054FBDDE9062300F05AFC38
:102B3000DDE9002300F056FC08B02A462346BDE834
:102B4000F04D00F043BC0B465A463046394600F083
:102B50003FFB084A084B00F0D7F84246534600F0C6
:102B600037FB08B02A462346BDE8F04D00F0CCB84C
:102B7000D60C0000495555555555C5BF012200F0EA
:102B800053BD002213461046114600F06DB90000F7
:102B9000024A0020110700F047BD000001FDFFFFC1
:102BA00000B5244B21F0004287B09A42DCBF0022DE
:102BB000134629DD204B9A4208D140B94FF001005D
:102BC000FDF796FBFFF7DDFF07B000BD03DBFFF766
:102BD000D5FF07B000BD02AAFFF7C2FC10F0030149
:102BE00004BF0DF1080C9CE80F000DD00120012955
:102BF0000ED0022914D00DF1080C00909CE80F00B3
:102C0000FFF746FF07B000BDFFF76EFE07B000BD3F
:102C10000DF1080C00909CE80F00FFF739FF05E06C
:102C20000DF1080C9CE80F00FFF75EFE07B081F085
:102C3000004100BDFB21E93F0000F07F00B5254BBE
:102C400021F0004287B09A4203DC00221346009232
:102C50002BE0214B9A4208D140B94FF00100FDF71B
:102C600047FBFFF78EFF07B000BD03DBFFF786FFD2
:102C700007B000BD02AAFFF773FC10F003014FF08C
:102C800001000DD0012914D002291AD00DF1080C31
:102C90009CE80F00FFF728FE07B081F0004100BD5F
:102CA0000DF1080C00909CE80F00FFF7F1FE07B053
:102CB00000BD0DF1080C9CE80F00FFF715FE07B0F2
:102CC00000BD0DF1080C00909CE80F00FFF7E0FE3E
:102CD000E2E70000FB21E93F0000F07F10B500298A
:102CE0000AD00878002807D005487844FDF7CEFEC2
:102CF000002801D0002010BD0248784410BD00001B
:102D0000D60B0000CE0B000010B591EA030F48BFB0
:102D100083F0004300F16E83841A71EB030C05D23B
:102D2000121943EB0C03001B61EB0C014FEA115429
:102D3000A4EB135CDFF81CE11EEA430F18BF9EEA08
:102D4000445F00F0748021EA045123EA0E0343F447
:102D50008013DCF1200E32D322FA0CFE10EB0E00B1
:102D600023FA0CFE41EB0E01CCF1200E03FA0EFE0D
:102D700010EB0E00CCF1200E51F10001B1F5801FD7
:102D800032D201EB045112FA0EF2BDE8104058BFE6
:102D90007047401C38BF5FEA420218BF70470028E6
:102DA00014BF20F0010041F100014FEA410313F587
:102DB000001F38BF7047A1F1C04100F001BB012ADC
:102DC00043EB0302ACF1200CDCF11F0E32BF4FF0DD
:102DD000000E23FA0CF310EB030041EB0451B4EBAB
:102DE000115FD0D0A1EB045101F58011490801EB2E
:102DF00004515FEA30000ED350F1000038BF12FAE0
:102E00000EFE08D1BDE81040C9E7401C38BF5FEA9C
:102E10004202CAD1C3E7BDE810404FEA410313F5AF
:102E2000001F38BF7047A1F1C04100F0C9BA9EEA47
:102E3000445F08D011EA5E0FBDE8104004BF01F006
:102E4000004100207047BDE8104070B500F06AFAFC
:102E500064FBBE3E0000E0FF02494FF0000000F0BE
:102E6000B1BB00BF0000F87F2DE9C04130B4DFF8EE
:102E7000A4C23CEA111418BF3CEA131400F0ED8020
:102E80001CEA111481EA030544EAD57418BF1CEA50
:102E9000131500F0C880A4EB050404F17F7404F559
:102EA00000344FF0004545EAC12145EAC32341EA19
:102EB000505143EA52534FEAC0204FEAC22299428E
:102EC00008BF904200F09D804FEA13650FF2441650
:102ED000765D4FEA134506FB05F7C7F1807706FBE1
:102EE00007F74FEAD737A7FB03687642A7FB06CE62
:102EF000C8F5803838BFA8F1010807FB08E6A6FB33
:102F0000028C4FF0000EE6FB03CEDCF1000CCEF19C
:102F1000004E38BFAEF1010EA6FB0C584FF0000773
:102F2000E6FB0E87A1FB08C6A0FB07CE16EB0E063C
:102F30004FF0000545F10005E1FB076515F1E04E96
:102F40007EBFA4F580345FEA46066D4116F1800726
:102F500045F100054FEA172747EA05674FEA1525AF
:102F60004FEA0666A6F1DE46B6F1805F20D9384604
:102F700005EBC47124F0010C01EB0C11BCF1FE6FE8
:102F800002D8F0BCBDE8008124425CBF01F5801E80
:102F90009EEAC47F02D4F0BCBDE80081244200F167
:102FA0003980A1F1C041F0BCBDE8004100F008BA91
:102FB0004FEAD02040EA41504FEAD1214FEAD222D5
:102FC00042EA43524FEAD323A7FB028607FB03667C
:102FD00005FB02661EEA0E0F58BFA6EB0056B6EBC5
:102FE00000564FEA520E4EEAC37E18EB0E0E56EB19
:102FF000530EBCD518EB02085E417F1C55F100054D
:10300000B5E74FF480154FF000074FF000064FF082
:103010000008ACE701F1C04101F000414FF00000B1
:10302000F0BCBDE800810CEA131511EA0C1F00D0BA
:103030000CE013EA0C1F00F026804FF0000081EA3C
:10304000030101F00041F0BCBDE80081F0BCBDE827
:10305000004181EA030100F0B3B9F0BCBDE80041D2
:1030600070B500F05FF900BF097EFC3E00F007B8C4
:103070004FF0000081EA030101F00041704781EA4E
:10308000030100F09DB9F0BCBDE8004122494FF0BA
:1030900000007047FFFDFBF9F7F5F4F2F0EEEDEB01
:1030A000E9E8E6E4E3E1E0DEDDDBDAD8D7D5D4D346
:1030B000D1D0CFCDCCCBCAC8C7C6C5C4C2C1C0BF92
:1030C000BEBDBCBBBAB9B8B7B6B5B4B3B2B1B0AF98
:1030D000AEADACABAAA9A8A8A7A6A5A4A3A3A2A17C
:1030E000A09F9F9E9D9C9C9B9A9999989797969537
:1030F00095949393929191908F8F8E8E8D8C8C8BD3
:103100008B8A89898888878786858584848383825A
:10311000828181800000FF070000F87F4FEA4103B1
:103120004FEA5353A3F58063D3F11E03C8BFD3F115
:10313000210C0CDD4FF0004242EAC12242EA50521B
:1031400032FA03FC8CEAE17CACEBE1707047102BA7
:10315000C4BF0020704703F5787CBCF1FF3F04D06A
:103160006FF0004282EA2100704770B500F0DAF893
:103170004992248000207047F2E710F0004248BFD7
:103180004042B0FA80F310FA03F10AD0C3F11D03F4
:1031900003F5806302EB03524FEA415002EBD12169
:1031A00070474FF000007047B0FA80F310FA03F157
:1031B0000AD0C3F11D0303F580634FEA03524FEABF
:1031C000415002EBD12170474FF0000070470000E2
:1031D00070B5DFF848C11CEA111E1EBF1CEA1315AA
:1031E0009EEA0C0F95EA0C0F00F06F8081EA030451
:1031F0004EEAD47EAE4421EA4C1123EA4C1341F44A
:10320000801143F48013AEF17F7EA1FB024CA0FB42
:103210000365361955EB0C05A1FB034C4CF100037B
:10322000A0FB021C16EB0C06654153F1000309429A
:1032300018BF46F0010613F4007F0BD14FEA0331AB
:103240004FEA053041EA155140EA165034036FF059
:1032500003020AE04FEAC3214FEAC52041EA555173
:1032600040EA5650F4026FF0020202EB2E4201EBEC
:10327000025585EACE710AD05FEA440C18BF24F0EB
:10328000004450F1000041F1000120EAD47040F206
:10329000FE7C624500D270BDA84214BF4FF080444E
:1032A0004FF04044002E08BF0024BEF1806FA8BF3D
:1032B000A1F1C041BDE8704080F2828001F1C041BF
:1032C00001F000414FF0000070470CEA13159EEA30
:1032D0000C0F18BF95EA0C0F06D081EA030E4FF0D1
:1032E00000000EF0004170BD00F01CF88900013EA6
:1032F00000F007B800F009B84FEA430C5FEA5C5CE5
:1033000008D081EA030100F05BB84FEA410C5FEAA4
:103310005C5CF6D102494FF0000070470000FF07E7
:103320000000F87F0EF1020E2EF0030E5EF8046B23
:10333000364205D4012A43EB030515F5001F12D8C8
:10334000012841EB010C1CF5001F0CD80ED14FEAEF
:10335000D17C0CEB4C0C0CF1020C15F5001F08BFD6
:103360004CEBD37C04E04FF0080C01E04FEAD37C37
:103370000CEB4C0526FA05F606F00706B6F1040C30
:1033800006D20EEB860CBDE870404CF0010C604795
:10339000DFE80CF0090B02024FF00041A1F500211B
:1033A0004FF0000070BD19461046012851EB010492
:1033B00018BFD4F5001484BF002001F0004170BD97
:1033C0000808A0F500114FEA3101704710B591EAE5
:1033D000030F81F000413FF59FAC83F0004300F004
:1033E00009B8000010B591EA030F48BF83F000430D
:1033F0003FF592AC841A71EB030C07D28CF0004CB1
:10340000121943EB0C03001B61EB0C014FEA115442
:10341000A4EB135CDFF8A4E11EEA430F18BF9EEA99
:10342000445F00F0B48021EA045123EA6E03524263
:10343000C3EB6E0338BF5B1EDCF1200E25D322FAEE
:103440000CFE10EB0E0043FA0CFE41EB0E01CCF12A
:10345000200E03FA0EFE10EB0E00CCF1200E51F1FF
:10346000000129D401EB045112FA0EF2BDE810401C
:1034700058BF7047401C1CBFB2F1004F7047002876
:103480000CBF491C20F00100704712EB020E43EB09
:10349000030218BF4FF0010E4EEA4202ACF1200CBD
:1034A000DCF11E0E56D943FA0CFE10EB0E00CCF1E7
:1034B0001E0E51F1FF31D5D50EF1010E12FA0EFE9E
:1034C000404141EB010101EB445C5FEA5C5C10D9D7
:1034D00001EB045110EBDE7038BFBEF1004FBDE8C8
:1034E000104018BF704700280CBF491C20F0010095
:1034F000704734D24FEAD42C24F4006411F5001143
:103500001BD0B1FA81F20B3AA41AA41ED2F1200307
:10351000914030FA03F31943904001EBCC7101EB79
:103520000451002CBDE81040A8BF704701F1C04114
:1035300001F000414FF000007047B0FA80F310FA3C
:1035400003F102D1BDE810407047E41A173C48056A
:10355000C90AE2E701EB0451BDE810407047491089
:103560004FEA300001EB0451BDE8104002E04FF09B
:10357000000170474A0008BF0042F8D0B2F5001FB2
:1035800028BF704701F000414FF0000070479EEAED
:10359000445F07D011EA5E0FBDE8104004BF002170
:1035A00000207047BDE8104070B5FFF7BBFE00BFBC
:1035B00040DFF63E104683F0004170470000E0FF18
:1035C000FCF7CDBF0CF00F03092B08BF082000F05B
:1035D00059800A2B0BD0082B18BF704708BF1CF06E
:1035E000400F0AD04FF000004FF0000170471CF070
:1035F000400F18BF4FF0004070471CF0100F08D06C
:1036000000F07F4220F0704342EAD3014FEA43705A
:10361000704700F0604021F07F4242EA000201F072
:103620007F4040EA727070474FF0FF0C4CF4E06C42
:103630001CEA11531CBF9CEA030C9445C2BFDA423A
:1036400001EB02517047002B0DD0BCF1000F0FD0E1
:1036500001F00041002AA4BF41F0E04141F07F6148
:103660004FF00000704701F000414FF0000070473C
:1036700050EA01334FF09B0C18BF4CF0806C7FF484
:10368000EBAB70471CF4801F11D01CF4E02F03D06B
:103690006FEACC31490070474FF04050EFF30082A1
:1036A00022F0704242EA000282F3008870474FF035
:1036B00000007047000000004C5555555555A53F7A
:1036C0007751C1166CC156BF9015CB19A001FA3EB7
:1036D000AD529C804F7E92BEC4B1B4BD9EEE213EE1
:1036E000D43888BEE9FAA8BD00004054FB21F93F58
:1036F0003163621A61B4D03D0000601A61B4D03DFC
:103700007370032E8A19A33B0000002E8A19A33B75
:10371000C14920259A837B39000000000000000089
:103720006E83F9A22915444ED15727FCC0DD34F52C
:10373000999562DB4190433CAB6351FE61C5BBDEB2
:103740003A6E24B7E0D24D42EA2E49061C92D109C6
:103750001CEB1DFE3EA729B1F53582E88444BB2E43
:1037600026709CE9417E5FB439D69139F439538390
:103770008B5F849C3B28F9BDFF97F81F0F9805DEEF
:103780008B112FEF1F6D0A5ACF7E366DB709CB27ED
:10379000663F464F2DEA5F9EC7BA27757BF1E5EB82
:1037A000F739073DEA92528AB15FFB6B085D8D1FC6
:1037B0004630035600000000A6F810111111813F99
:1037C000D561C119A0012ABF7DFEB157E31DC73ED7
:1037D000EB9C2B8AE6E55ABE7CD5CF5A3AD9E53D1B
:1037E00002400000000000A00000000005400000B2
:1037F000000000C8000000000C4000000000409CD9
:1038000000000000194000000020BCBE00000000C5
:1038100034400000BFC91B8E00000004B54000000A
:10382000504BCFD06607E2CF010000006C41000092
:103830003E8251AADFEEA73401000000D942000009
:10384000DCB5A0E23A301F97FFFFFFFFB445000050
:10385000FD25A0C8E9A3C14FFFFFFFFFFF3F000008
:103860000000008000000000FF3F0000000000801A
:103870000000000001020000000000000000010242
:103880000304060708090000000001020304020304
:103890000405060708090A0B0C0D0E0F1010000096
:1038A000E038000800000020100000002801000897
:1038B000F038000810000020000700004401000854
:1038C0001C00000043000000F8FFFFFF0C00000098
:1038D0000E0000000F0000002E000000000000009D
:1038E00001000000100000000024F40000000000AF
:04000005080000ED02
:00000001FF
