:020000040800F2
:1000000078060020A90100085713000853130008C0
:1000100055130008AB120008591600080000000034
:1000200000000000000000000000000005140008AF
:10003000AD1200080000000059130008B1140008B8
:10004000C3010008C3010008C3010008C301000880
:10005000C3010008C3010008C3010008C301000870
:10006000C3010008C3010008C3010008C301000860
:10007000C3010008C3010008C3010008C301000850
:10008000C3010008C3010008C3010008C301000840
:10009000C3010008C3010008C3010008C301000830
:1000A000C3010008C3010008C3010008C301000820
:1000B000C3010008C301000800000000C3010008DC
:1000C000C30100080000000000000000C301000898
:1000D00000000000C3010008C30100080000000088
:1000E000C3010008C3010008C301000800F002F8C2
:1000F00000F04AF80AA090E8000C82448344AAF178
:100100000107DA4501D100F03FF8AFF2090EBAE875
:100110000F0013F0010F18BFFB1A43F0010318473B
:100120001429000034290000103A24BF78C878C18F
:10013000FAD8520724BF30C830C144BF04680C60ED
:10014000704700000023002400250026103A28BF35
:1001500078C1FBD8520728BF30C148BF0B60704739
:10016000662902F01183642900F07E800020704728
:100170001FB500F03DFB04000020002101F098FEB7
:10018000E0601FBD10B510BD00F052FC1146FFF736
:10019000EFFF01F0F7FD00F070FC03B4FFF7F2FF92
:1001A00003BC00F0B3FC0000094880470948004741
:1001B000FEE7FEE7FEE7FEE7FEE7FEE7FEE7FEE717
:1001C000FEE7FEE704480549054A064B7047000074
:1001D000B5140008ED000008780000207806002023
:1001E00078020020780200200FB4044910B503AA59
:1001F000029800F0EBFA10BC5DF814FB140000202C
:100200002DE9F0410E460446002020622046E168B8
:10021000884730B3252805D0D4E901219047206ACA
:10022000401CF2E7E168204600278847050018D007
:10023000A5F14100192802D820354FF40067324655
:10024000294620462760FFF78BFF40B1012804D0E4
:10025000F61D26F007060836D8E7361DD6E72846ED
:10026000DAE7206ABDE8F0812DE9F0410646002476
:1002700010687529314616A510D0AFF3008000280C
:1002800002DA404213A507E031688A0701D512A5BA
:1002900002E0490704D511A5012401E0AFF3008075
:1002A00000210A2206F1240709E0B0FBF2FCB0FBB2
:1002B000F2F302FB1C00303078541846491C002829
:1002C000F3D123462A463046BDE8F04100F016B887
:1002D000000000002D0000002B00000020000000A6
:1002E00070477047704710B500F086FA006810BD7F
:1002F00010B5044600F080FA046010BD2DE9F04707
:100300000D4699469246044600F124080168880685
:1003100004D5E06921F01001216000E00120A8422D
:1003200001DD471B00E00027A1697A1902EB0900F3
:10033000081AA0612078C00602D42046AFF30080DE
:10034000002608E0D4E901211AF806009047206A47
:10035000401C761C20624E45F4DB2078C0060AD58E
:100360002046AFF3008006E0D4E901213020904719
:10037000206A401C2062381EA7F10107F4DC07E068
:10038000D4E9012118F805009047206A401C20623A
:10039000281EA5F10105F3DC2046AFF3008020788C
:1003A000000602D50220BDE8F0870120FBE7704778
:1003B0002DE9FF4F0C461E464FF0FF378BB0D2E9B8
:1003C0000001DDF860800A908A46C1F30A5505B93C
:1003D0003D46002108464FF00000BAF1000F00F43E
:1003E000400005DA00EB80004FF4400101EA5000C4
:1003F0004FEA9059B9F1010F00DDB9460A9850EA69
:100400004A000ED044F61050A5F2FF3545432F1494
:10041000B8F1000F1ED07542291E1EDDC9F1000281
:100420001CE0B8F1010F4FF0000001D0302103E0D3
:10043000F24305E02154401CB042FBDB3046002271
:10044000002121540B99C1F80880C1E900200FB0A8
:10045000BDE8F08FBD1B6D1CDEE74A4600DA69423D
:1004600006A800F06BFA06AB93E8070003AB83E83D
:10047000070050460A9900F050FB8DE80700A0F5F0
:1004800000501F3800900398002D0ADD42F21F0132
:100490004A460844002303A90390684600F0B9FDCA
:1004A00009E0A0F500504A461F38002303A9039035
:1004B000684600F0C3FD8DE807000004000C03D07F
:1004C0004FF0FF30410800E01046B8F1000F03D0B4
:1004D0000022009215461EE0751E05D400F090F92A
:1004E000303262556D1EF9D5B3460122084302D061
:1004F00000227F1C04E02078302801D100227F1EDA
:10050000002A099784D01DE0112D07DA00F078F950
:10051000303262556D1C50EA0102F5D1084302D019
:100520000098C8B10EE00021681E05E0235C625C03
:1005300063542254401E491C8142F7DBAB46A81B82
:10054000401E0990002004F80B000B98099AC0F88F
:100550000880C0E9002B7AE711264FF0000857E722
:100560002DE9F04F88460446D21D22F0070191B0D4
:10057000D1E90001CDE90A0101F06FF802460B98BC
:10058000C00F01D02D2007E02068810701D52B2066
:1005900002E0202101EAC000032A099001D0072AC5
:1005A00005DB03464146204600F088F90BE1207840
:1005B000800601D5E06900E00620B8F1650F8146AC
:1005C00006D0B8F1660F18D0B8F1670F70D131E0DE
:1005D0000020B9F1110F009001DB112301E009F1B6
:1005E00001030AAA01A90CA8FFF7E2FEDDE90C70DD
:1005F000002609F10105834647E001204B460090A3
:100600004FF000470AAA01A90CA8FFF7D1FEDDE9C7
:100610000DB00C995D46002610B909F101000D18C6
:10062000B9EB050003D4C0F1FF3609F10105A5EBD4
:1006300009002BE0B9F1010F01DA4FF001090020A8
:10064000B9F1110F0090484601DD112300E0034687
:100650000AAA01A90CA8FFF7ABFEDDE90C704D4614
:1006600000268346207800070AD4AB4500DA5D46B1
:1006700001A8012D04DD411911F8011C302907D012
:100680004F4502DA17F1040F04DA012082460FE029
:100690006D1EEEE7002F02DCED1B3E4403E0781CEC
:1006A000A84200DD7D1CB81B00F1010A4FF0004795
:1006B0002078000703D4AA4501DB4FF0FF3A002160
:1006C000B7F1004F0DF143088DF8431024D00220FC
:1006D0002B23002F01DA7F422D230A21021EA0F1D5
:1006E000010000DC5FB197FBF1FC97FBF1F201FB2D
:1006F0001C7C17460CF1300C08F801CDEEE7A8F190
:10070000010003702188090501D5452100E065211C
:10071000A0F1010800F8011C09980FA9A1EB080736
:10072000FF1D00B10120411901EBEA70A1693844B5
:10073000081A401EA0612078C00602D42046AFF3FC
:100740000080099828B1D4E901219047206A401C13
:1007500020622078C00622D52046AFF300801EE03C
:10076000002E04DBB34502DD01A8805D00E03020EF
:10077000D4E901219047206A401C2062761CAAF12E
:1007800001005FEA000A0AD100F032F8C06801688F
:10079000405CD4E901219047206A401C2062281E59
:1007A000A5F10105DCDC07E0D4E9012118F8010B13
:1007B0009047206A401C2062381EA7F10107F3DC35
:1007C0002046AFF30080032011B041E6074B70B51F
:1007D0000D467B4400F05FF80446284600F020F9FF
:1007E00010B14FF0FF3070BD204670BD8B1500007A
:1007F000004870473800002000487047180000206B
:1008000030B5B0F10A024FEA900E71F100034EEAE2
:10081000817EB0EB0E0061EB91014FEA101E4EEAB3
:10082000017E10EB0E0041EB11114FEA102E4EEA43
:10083000016E10EB0E0041EB11214FEA104E4EEA13
:10084000014E10EB0E0041EB1141401841F1000147
:100850004FEAD00040EA41704FEAD10110EB800529
:100860004FEA810444EA907444EB01046D1944EBAF
:100870000404521BA3414FF0000348BF0A3200D5C5
:1008800030BD401C41F1000130BD000001694A1C2F
:1008900002610878704700B58FB0CDE901310021C1
:1008A000059105497944CDE9031011466846FFF7E3
:1008B000A7FC0FB000BD0000E5FFFFFF2DE9F041F0
:1008C0001F46044603260168072A01F4006004DB82
:1008D00008B116A505E016A503E008B115A500E0CE
:1008E00015A521F010002060A069C01EA0610FB105
:1008F000401EA0612046AFF300804FB1D4E9012132
:1009000038469047206A401C2062C01C206206E0E6
:10091000206AFAE7D4E9012115F8010B9047761E09
:10092000F8D22046AFF30080BDE8F0814E414E0082
:100930006E616E00494E4600696E66002DE9F04713
:10094000814616468AB0354878440DC88DE80D00BA
:1009500032487844801C03AC0DC884E80D0041F691
:100960009B300844372190FBF1F290FBF1F5A5F1A3
:10097000800501FB12041B3C02D56442012000E00B
:100980000020DFF898A080460027FA44AAF1BE0AAA
:100990000EE0E0070AD03246684607EB4701012324
:1009A0000AEB810100F04AFB8DE8070064107F1C10
:1009B000002CEED1194F7F44AE3F19E0E80715D067
:1009C00007EB04100DF1180A90E80E008AE80E00FB
:1009D000C068F04201D1981908903246012306A957
:1009E00003A800F02BFB03AB83E807006D10641C29
:1009F000002DE3D14FF0010332466946B8F1000FF4
:100A000003A802D000F005FB01E000F017FBC9E9E4
:100A10000001C9F808200AB0BDE8F087D020000026
:100A2000007B00F0800070470048704718000020ED
:100A30007546FFF7F9FFAE4605006946534620F0BC
:100A40000700854618B020B5FFF7BCFBBDE8204085
:100A50004FF000064FF000074FF000084FF0000B7A
:100A600021F00701AC46ACE8C009ACE8C009ACE82D
:100A7000C009ACE8C0098D46704710B50446AFF315
:100A800000802046BDE81040FFF787BB4FF0013CD7
:100A900050F8042B51F8043B9A4221D1A2EB0C03ED
:100AA000934313EACC1317D150F8042B51F8043BAD
:100AB0009A4215D1A2EB0C03934313EACC130BD14A
:100AC00050F8042B51F8043B9A4209D1A2EB0C03D5
:100AD000934313EACC13DBD04FF00000704700BF04
:100AE000D01A01BAB1FA81F101F0180122FA01F02D
:100AF000CB40C1F12001DBB2C0B2C01A2CFA01F325
:100B0000D11A914311EAC311E6D170470149182067
:100B1000ABBEFEE72600020070475FEA400C08BF4C
:100B200091F0000F4FEA8C234FEAC12243EA515162
:100B30004FEA1C5018BF00F5F0404FEA300018BFD4
:100B400041F000415FEA6C5C00F02980BCF1FF3F9E
:100B500008BF40F080407047130C06BF12044FF0EE
:100B6000100C4FF0000C130E04BF12020CF1080C15
:100B7000130F04BF12010CF1040C930F04BF920079
:100B80000CF1020CD30F04BF52000CF1010C114602
:100B90004FF00002A0F11F00A0EB0C00704711F015
:100BA000004F08BF704731F000413FF4D5AF0B0C48
:100BB00006BF09044FF0100C4FF0000C0B0E04BFE1
:100BC00009020CF1080C0B0F04BF09010CF1040C15
:100BD0008B0F04BF89000CF1020CCB0F04BF49003E
:100BE0000CF1010CCCF12003A0EB0C0022FA03F372
:100BF00002FA0CF241EA030100F10100704720F013
:100C00007F4C80EA030023F07F47ACEB070303F53A
:100C10007C5300F0004003F1FF032DE980494FEAC7
:100C2000154B09B44FEA144325EA0B4E24EA034856
:100C30000FF2042606EB132749083E785FEA3202DA
:100C400003FB0667C7F5000707FB06F64FEA5437B4
:100C50004FEAD64606F1020607FB066CCCF1005CB3
:100C60004FEA1C472CEA074C07FB06F40CFB06F581
:100C700004EB15464FEA961634BF00204FF00040B3
:100C80004FEAD13706FB07FC4FEA1C4C0CFB0BF775
:100C9000D21B03FB0CF761EB07010CFB0EF7B0EB6B
:100CA000074072EB17420CFB08F734BFA2EB074278
:100CB000B2EB074261EB17414FEA0C444FEA910750
:100CC00006FB07FC4FEA1C4C0CFB0BF7B0EBC740D4
:100CD00072EB573203FB0CF734BFA2EBC742B2EB07
:100CE000C74261EB57310CFB0EF7B0EBC70072EB5C
:100CF00057720CFB08F734BFA2EBC702B2EBC70276
:100D000061EB5771039F4FEA816141EA921104EB55
:100D1000CC044FEAD1374FEA826206FB07FC42EA75
:100D200090124FEA80604FEA1C4C0CFB0BF7D21B71
:100D300003FB0CF761EB07010CFB0EF7B0EB074070
:100D400072EB17420CFB08F734BFA2EB0742B2EB81
:100D5000074261EB17414FEA8C554FEA910704EBCC
:100D60009C2406FB07FC4FEA1C4C0CFB0BF7B0EB7A
:100D7000C74072EB573203FB0CF734BFA2EBC742FC
:100D8000B2EBC74261EB57310CFB0EF7B0EBC7007B
:100D900072EB57720CFB08F734BFA2EBC702B2EB41
:100DA000C70261EB577115EB4C254FEA816141EAAF
:100DB00092114FEA82624FEAD13742EA901206FB63
:100DC00007FC44F100044FEA80604FEA1C4C0CFB26
:100DD0000BF7D21B03FB0CF761EB07010CFB0EF7C3
:100DE000B0EB074072EB17420CFB08F734BFA2EBE5
:100DF0000742B2EB074261EB174115EB1C154FEAB6
:100E0000813141EA92414FEA823242EA90424FEA0E
:100E100080304FEA0C7644F1000448EA03434EEA7E
:100E20000B484FF0000EB2EB080C71EB030724BF28
:100E3000624639464EEB0E0E4FF0000B0018524141
:100E400049414BEB0B0BB2EB080C71EB03077BF149
:100E5000000B24BF624639464EEB0E0E4FF0000BDE
:100E60000018524149414BEB0B0BB2EB080C71EBF4
:100E700003077BF1000B24BF624639464EEB0E0E92
:100E800051EA020718BF46F0010616EB0E7655F13F
:100E9000000254F1000103D5BDE88901BDE80088D6
:100EA000BDE88901BDE80048B619524141EB010196
:100EB000A3F10103704780807F7E7D7C7B7A797807
:100EC000777676757473727171706F6E6E6D6C6C0F
:100ED0006B6A6A69686867666665646463636261B1
:100EE0006160605F5F5E5E5D5D5C5C5B5B5A5A5932
:100EF000595858575756565555555454535352529E
:100F00005251515050504F4F4F4E4E4D4D4D4C4CF5
:100F10004C4B4B4B4A4A4A4949494848484747473E
:100F2000474646464545454444444443434343427B
:100F3000424242414141002B9C4630D477002BD0A5
:100F40001CB54FEA370703B44FF010004FF0100103
:100F5000BAF1000F06D0BCF1000FDCBF40F0080072
:100F600040F008014FF000000FBCBDE810400BF14D
:100F7000010BBBF1010F08BF5FEA170722BF12F197
:100F8000010211F101014FF0004143F1000300F0B3
:100F9000004043EA00007047F9D35708D0E746EA1B
:100FA000064613F1400F4FEA16461FDD13F1200FDE
:100FB000DFBF16430A46002120335B42BED0C3F197
:100FC000200746EA064602FA07F74FEA164646EABF
:100FD0000706C3F1200722FA03F201FA07F721FA04
:100FE00003F14FF0000342EA0702A7E746EA0206D0
:100FF00046EA06464FEA164646EA0106BCBF46EAFE
:101000000646360C4FF000034FF000024FF000018F
:1010100094E72DE9804C9A46934670B491E83800E5
:1010200007C831EA400C48BF34EA430C03D5FFF748
:10103000E6FDFFF780FFF0BCBDE8008C2DE9804C99
:101040009A46934670B491E8380007C810F0804F74
:1010500008BF13F0804F03D100F005F8FFF76BFFD6
:10106000F0BCBDE8008C20F07F4780EA030023F04D
:101070007F4C07EB0C03A3F57C5300F00040A3F179
:10108000FE0392F0000F00F0B38095F0000F00F027
:1010900077802DE901494FEA11404FEA144621EAD1
:1010A000004800FB06FC24EA064708FB06F607FB9F
:1010B00008F800FB07F718EB06484CEB164C4FEA14
:1010C000124B18EB07484FEA15464CEB174022EA43
:1010D0000B4E0BFB06FC25EA06470EFB06F607FB4C
:1010E0000EFE0BFB07F71EEB064E4CEB164C4FF0BB
:1010F00000061EEB074E4CEB174B18EB0B0840F1AC
:10110000000018EB0E0B58EB000840F100008F1A9E
:101110004FF000013CBFC943661B14BFB5EB040C84
:1011200000213CBFC943F61B4FEA17444EEA8E0E1E
:1011300027EA04454FEA1C4704FB07622CEA074CE8
:1011400005FB07F70CFB05F604FB0CFC16EB07464A
:1011500042EB174216EB0C4642EB1C421BEB060619
:1011600058EB0202414146EA9E0601D5BDE80189DD
:10117000B619524141EB0101A3F10103BDE8018918
:101180004FEA14454FEA114724EA054621EA074C85
:1011900005FB07F406FB07F70CFB06F105FB0CFC4F
:1011A00011EB074144EB17444FEA124711EB0C4196
:1011B00044EB1C4422EA074C05FB07F206FB07F749
:1011C0000CFB06F605FB0CFC16EB074642EB174240
:1011D00016EB0C4642EB1C456A1854F1000148BF5F
:1011E0007047B619524141EB0101A3F10103704769
:1011F00095F0000F37D04FEA11424FEA144721EA29
:10120000024624EA074C02FB07F106FB07F70CFB3A
:1012100006F402FB0CFC14EB074441EB17414FEAC8
:10122000154714EB0C4441EB1C4125EA074C02FB2B
:1012300007F506FB07F70CFB06F602FB0CFC16EBAA
:10124000074645EB174516EB0C4645EB1C421219B9
:1012500051F1000148BF7047B619524141EB0101FD
:10126000A3F1010370474FEA14454FEA114724EAFE
:10127000054621EA074C05FB07F106FB07F70CFBC7
:1012800006F24FF0000605FB0CFC12EB074241EBA7
:10129000174112EB0C4251EB1C4148BF70479218AA
:1012A00041EB0101A3F101037047FEE77047000025
:1012B000F0B5CA78002502F00F03D20601D58A786E
:1012C00013430A784FF00F0E12F0FF0F4FF0010298
:1012D0001CD004680F8802FA05F63740B74211D1D6
:1012E0004FEA850C0EFA0CF724EA070703FA0CF410
:1012F0003C43CF78282F02D0482F02D002E046612D
:1013000000E006616D1C082DE4D304600C88FF2CFE
:101310001ED944685FF0000606F1080702FA07F5D7
:101320000F882F40AF420FD14FEA860C0EFA0CF710
:10133000BC4303FA0CF73C43CF78282F00D145611A
:10134000CF78482F00D10561761C082EE4D3446085
:10135000F0BDFEE7FEE7704770470000044A002931
:10136000916901D0014300E0814391617047000021
:101370000010024030B51F494A6812F00C031E4AA3
:1013800003D0042B01D0082B21D002604A680F2320
:101390001A4C03EA1212A35C0268DA4042604B68FE
:1013A000072505EA1323E35C22FA03F383604B6805
:1013B00005EAD323E35CDA40C2604968032303EA09
:1013C0009131231F595CB2FBF1F1016130BD4A68D4
:1013D0004B6802F470124FF0020413F4803F04EBE8
:1013E000924202D04B689B0301D5054B00E0024BB3
:1013F0005A43CAE70010024000127A00040000209D
:1014000000093D00704700000CB5002126480191FD
:101410000091026842F4803202604FF4A0630268D7
:1014200002F400320092019A521C0192009A12B901
:10143000019A9A42F3D10268920333D501210091B7
:101440001A490A6842F010020A600A6822F007028C
:101450000A600A6842F002020A604168416041681D
:101460004160416841F480614160416821F47C1130
:101470004160416841F4E8114160016841F08071C8
:10148000016001688901FCD5416821F003014160D8
:10149000416841F0020141604168C1F381010229C4
:1014A000FAD10CBD00910CBD00100240002002409A
:1014B000704700000F4810B5016841F0010101605C
:1014C00041680D4A1140416001680C4A11400160B9
:1014D000016821F480210160416821F4FE0141602E
:1014E0004FF41F018160FFF78FFF05494FF0006047
:1014F000086010BD001002400000FFF8FFFFF6FE7C
:1015000008ED00E010B586B0012144F20400FFF7B9
:1015100025FF4FF40070ADF8100003208DF8120085
:101520001820154C8DF8130004A92046FFF7C0FEC3
:101530002015ADF8100048208DF8130004A92046AE
:10154000FFF7B6FE4FF4E13000900020ADF8040044
:10155000ADF80600ADF80800ADF80C000C20074C03
:10156000ADF80A006946204600F01CF8012120462B
:1015700000F006F806B010BD000801400038014038
:101580000029818902D041F4005101E021F4005189
:10159000818170470246002012880A4200D0012053
:1015A0007047000030B50446008A85B00D464CF601
:1015B000FF710840E98801432182A1894EF6F310AA
:1015C0000140A8882A8910436A890A431043A081F0
:1015D000A08A4FF6FF410840A9890143A1826846CD
:1015E000FFF7C8FE1948844201D1039800E0029831
:1015F000A189090400EBC00101EB0010296801D5A5
:10160000490000E08900B0FBF1F06422B0FBF2F188
:1016100009010B096FF018056B4300EB8300A389E8
:101620001D044FF0320306D503EBC000B0FBF2F00F
:1016300000F0070005E003EB0010B0FBF2F000F053
:101640000F000843208105B030BD00000038014084
:10165000C1F3080181807047FEE7490050EAC120CC
:1016600018BF04204A0D18BF40F0010040F2FF727D
:10167000B2EB515F08BF40F00200012808BF05200F
:10168000704700002DE9F74F144694B00021C4E9DB
:1016900002111599079121F00045C9498D4206DCD8
:1016A0001599C4E9000117B00020BDE8F08FC549C5
:1016B000DFF814A3A9423CDD0799C44E0029C44FAA
:1016C000C44A1599534619DD00F074FF554506D0FC
:1016D000C14AC24B00F06EFFC4E900010AE04FF0BE
:1016E000D352BE4B00F066FF32463B4600F062FF2D
:1016F000C4E9000117B00120BDE8F08F00F0EEFB57
:10170000554506D0B44AB54B00F0E8FBC4E90001EA
:101710000AE04FF0D352B14B00F0E0FB32463B46BB
:1017200000F0DCFBC4E9000117B04FF0FF30BDE86A
:10173000F08FAB49A942159978DB21F0004183462F
:101740008846A84AA84B00F02BFE0022A74B00F0C9
:10175000C5FB00F0CBFD099000F0F7FD06460F46F3
:101760009C4A534600F01CFE43465A4600F016FFC2
:1017700080468A46984A994B3046394600F010FE1A
:101780002A0D01250B924246534600F007FF032D18
:10179000C4E9000139D00B98C1F30A51401A05EB96
:1017A00045111139814230DA9148C346784400EB43
:1017B0000510CDF80CA00C90D0E900233046394636
:1017C00000F0EEFD02460B46049106905846039940
:1017D00000F0F0FE80468A4602460B4658460399C2
:1017E00000F0E8FE049B069A00F0E4FE83460C98A5
:1017F00003913946D0E90223304600F0D1FD5A4624
:10180000039B00F0D7FE6D1CBDE707980028A2BF20
:10181000099817B0BDE8F08F616881F00041616000
:10182000099817B04042BDE8F08FFFE7844615984D
:10183000C1F31301C0F30A50A0F2F5304FEA60186B
:1018400000F01F06C6F120001390002006900790BC
:1018500041F4801E05206D4676B1664A08EB000112
:101860007A4452F8213002EB8101B3404A6813995F
:1018700022FA01F1194305E05F4908EB00027944BF
:1018800051F82210A1FB0E27A1FB0C131A449A4217
:1018900034BF0123002303EB070A05EB8003D3E9E0
:1018A00001B70F448F4234BF0121002193448B4480
:1018B00011B1934502D903E0934501D2012100E023
:1018C0000021C3E901B7514445F82010011EA0F1E1
:1018D0000100C1DC0298059F00F10050800F1290BA
:1018E0000298DDE90356800000F02FFD834628466C
:1018F0000D9100F041FD6FF01D0200F079FFCDE980
:101900000E01304600F038FD6FF03D0200F070FF30
:1019100080468A46384600F02FFD6FF05D0200F0E9
:1019200067FF074642465346119100F0D7FADDE9BA
:101930000E2300F0D3FA5A460D9B00F0CFFA002593
:101940000E465A4628460D9B00F034FEDDE90E2374
:1019500000F030FE4246534600F02CFE3A46119B02
:1019600000F01CFEDFF898A0244A534600F018FD52
:1019700007468846234A244B3146284600F010FD8E
:101980003A46434600F0AAFA074688464FF0A84276
:1019900053463146284600F003FD3A46434600F0E0
:1019A0009DFA159A12F0004F04D0129A81F000416E
:1019B00052421292C4E90001129817B0BDE8F08FAC
:1019C000FB21E93F7CD90240FB21F93F7370032ED4
:1019D0008A19A33B000040543163621A61B4D03DC0
:1019E000FB21394183C8C96D305FE43F0000E03F0F
:1019F000001100007C1000005E100000182D4454FF
:101A0000FB21F93D3326A611460B113C2DE9FF4D74
:101A100021F0004807460C46B8F1795F08DA00F07B
:101A200065FC002801BF0020324904B0BDE8F08DFC
:101A30003A4623461046194600F0B2FC05460246D7
:101A40002D480E460B460621784400F05DF82A46E4
:101A5000334600F0A5FCDDE9022382468B4638467A
:101A6000214600F09DFC04460F4652465B46284640
:101A7000314600F095FC22463B4600F09BFD0746B0
:101A80008A464FF0FF322846314600F0B1FE1B4A2D
:101A900090450ADA3A46534600F08CFD04B0002225
:101AA000BDE8F04D134B00F079BD154A4245A8BF83
:101AB000A8F500154FF00004B8BF124D22462B4682
:101AC00000F078FD0646884622462B46002009494C
:101AD00000F070FD04460D463A46534630464146F6
:101AE00000F068FD04B022462B46BDE8F04D00F042
:101AF00055BD00000000F03F340E00003333D33FEB
:101B00000000E93F0000D23F2DE9F0414F1E00EBFD
:101B1000C7010446D1E9000115461E4637F006020A
:101B20000DD02A46334600F03BFC7F1E04EBC70372
:101B3000D3E9002300F0D2F937F00602F1D1022FE9
:101B400025D0042F13D0062F18BFBDE8F0812A46F8
:101B5000334600F025FCD4E90A2300F0BFF92A46F9
:101B6000334600F01DFCD4E9082300F0B7F92A46FB
:101B7000334600F015FCD4E9062300F0AFF92A46FD
:101B8000334600F00DFCD4E9042300F0A7F92A46FF
:101B9000334600F005FCD4E9022300F09FF92A4601
:101BA000334600F0FDFBD4E90023BDE8F04100F02E
:101BB00095B900002DE9FF4D054621F0004084B0A5
:101BC0000C46B0F1795F0BDA2846FFF746FD042892
:101BD00008BF00F06FF8284608B02146BDE8F08D38
:101BE0002A460B46104600F0DBFB06460F462A4607
:101BF000234600F0D5FB804626488A4632463B46BF
:101C000005217844FFF780FF83461098029160B366
:101C1000214A224B4046514600F0C2FBCDE900016B
:101C20005A4640465146029B00F0BAFB824688461F
:101C3000DDE906014FF0FF3200F0DAFD524643467F
:101C400000F0B8FC32463B4600F0AAFBDDE9062373
:101C500000F0B0FCDDE9002300F0ACFC08B02A463F
:101C60002346BDE8F04D00F099BC0B465A4630467D
:101C7000394600F095FB084A084B00F02FF9424620
:101C8000534600F08DFB08B02A462346BDE8F04DD0
:101C900000F024B9720D0000495555555555C5BF82
:101CA000012200F0A5BD002213461046114600F0A7
:101CB000C5B90000024A0020110700F099BD0000DC
:101CC00001FDFFFF00B5244B21F0004287B09A428E
:101CD000DCBF0022134629DD204B9A4208D140B9CF
:101CE0004FF00100FEF704FBFFF7DDFF07B000BD7A
:101CF00003DBFFF7D5FF07B000BD02AAFFF7C2FC68
:101D000010F0030104BF0DF1080C9CE80F000DD08A
:101D1000012001290ED0022914D00DF1080C0090E9
:101D20009CE80F00FFF746FF07B000BDFFF76EFE0F
:101D300007B000BD0DF1080C00909CE80F00FFF704
:101D400039FF05E00DF1080C9CE80F00FFF75EFE7F
:101D500007B081F0004100BDFB21E93F0000F07FAA
:101D600070B5074D0446C1B22846FFF771FC40210B
:101D70002846FFF70FFC0028F9D0204670BD000070
:101D8000003801401CB50024FFF7BCFBDFF864B04D
:101D9000DFF864806FF0070A204600F0D6FA52465A
:101DA00000F026FD022200F023FD5A46134B00F0FE
:101DB000F7FA89460546FFF785FF0022434600F003
:101DC000EFFA00220E4B00F0F5FB06460F462846C0
:101DD000494600F01DF80022434600F0E1FA0246B1
:101DE0000B46214607A0CDE90067FEF7FDF9641C0C
:101DF000D2E70000182D445400003440FB21094074
:101E00000000144025642C25662C25660A0000007D
:101E100000B5254B21F0004287B09A4203DC002236
:101E2000134600922BE0214B9A4208D140B94FF063
:101E30000100FEF75DFAFFF736FF07B000BD03DBD8
:101E4000FFF72EFF07B000BD02AAFFF71BFC10F042
:101E500003014FF001000DD0012914D002291AD03E
:101E60000DF1080C9CE80F00FFF7D0FD07B081F0E2
:101E7000004100BD0DF1080C00909CE80F00FFF739
:101E800099FE07B000BD0DF1080C9CE80F00FFF7AC
:101E9000BDFD07B000BD0DF1080C00909CE80F00DF
:101EA000FFF788FEE2E70000FB21E93F0000F07F3A
:101EB00010B500290AD00878002807D005487844D2
:101EC000FEF7E4FD002801D0002010BD0248784450
:101ED00010BD0000960B00008E0B000010B591EABB
:101EE000030F48BF83F0004300F16C83841A71EB49
:101EF000030C05D2121943EB0C03001B61EB0C0120
:101F0000DFF824E14FEA1154A4EB135C1EEA430FFF
:101F100018BF9EEA445F73D023EA0E03DCF1200E63
:101F200021EA045143F4801332D322FA0CFE10EB61
:101F30000E0023FA0CFE41EB0E01CCF1200E03FA49
:101F40000EFE10EB0E0051F10001B1F5801FCCF137
:101F5000200E32D201EB045112FA0EF2BDE810400D
:101F600058BF7047401C38BF5FEA420218BF704735
:101F7000002814BF20F0010041F100014FEA4103A5
:101F800013F5001F38BF7047A1F1C04100F000BB3E
:101F9000012A43EB0302ACF1200CDCF11F0E32BF2F
:101FA0004FF0000E23FA0CF310EB030041EB045149
:101FB000B4EB115FD0D0A1EB045101F580114908B9
:101FC0005FEA300001EB04510ED350F1000038BF3E
:101FD00012FA0EFE08D1BDE81040C9E7401C38BF18
:101FE0005FEA4202CAD1C3E7BDE810404FEA4103AD
:101FF00013F5001F38BF7047A1F1C04100F0C8BA07
:102000009EEA445F08D011EA5E0FBDE8104004BFAD
:1020100001F0004100207047BDE8104070B500F0AD
:1020200069FA00BF64FBBE3E0000E0FF02494FF0CA
:10203000000000F0ABBB00BF0000F87F2DE9C041FD
:1020400030B4DFF8A0C23CEA111418BF3CEA131404
:1020500000F0EC8081EA03051CEA111444EAD5740F
:1020600018BF1CEA131500F0C780A4EB05044FF05D
:10207000004545EAC12145EAC32341EA505143EAFC
:10208000525304F17F74994204F500344FEAC020A2
:102090004FEAC22208BF904200F09C804FEA1365CD
:1020A0000FF24016765D4FEA134506FB05F7C7F1C0
:1020B000807706FB07F74FEAD737A7FB036876421E
:1020C000C8F58038A7FB06CE38BFA8F1010807FB8A
:1020D00008E64FF0000EA6FB028CE6FB03CEDCF117
:1020E000000CCEF1004E38BFAEF1010EA6FB0C582D
:1020F0004FF000074FF00005E6FB0E87A1FB08C676
:10210000A0FB07CE16EB0E0645F10005E1FB0765C7
:1021100015F1E04E7EBFA4F580345FEA46066D41BE
:1021200016F1800745F100054FEA17274FEA0666CA
:1021300047EA0567A6F1DE46B6F1805F4FEA15254E
:102140001FD9384624F0010C05EBC471BCF1FE6FB9
:1021500001EB0C1102D8F0BCBDE8008124425CBF49
:1021600001F5801E9EEAC47F02D4F0BCBDE8008168
:10217000244238D4F0BCA1F1C041BDE8004100F0D8
:1021800007BA4FEAD22242EA43524FEAD323A7FBCF
:1021900002864FEAD02040EA415007FB03661EEA60
:1021A0000E0F4FEAD12105FB026658BFA6EB005681
:1021B000B6EB00564FEA520E4EEAC37E18EB0E0EF7
:1021C00056EB530EBDD518EB02085E417F1C55F14E
:1021D0000005B6E74FF480154FF000074FF00006FA
:1021E0004FF00008ADE7F0BC4FF0000001F1C04136
:1021F00001F00041BDE8008111EA0C1F0CEA131543
:1022000000D00CE013EA0C1F00F025804FF0000016
:10221000F0BC81EA030101F00041BDE80081F0BC9F
:10222000BDE8004181EA030100F0B2B9F0BCBDE8AD
:10223000004170B500F05EF9097EFC3E00F007B881
:1022400081EA03014FF0000001F00041704781EA8C
:10225000030100F09DB9F0BCBDE800414FF0000063
:1022600021497047FFFDFBF9F7F5F4F2F0EEEDEBD5
:10227000E9E8E6E4E3E1E0DEDDDBDAD8D7D5D4D384
:10228000D1D0CFCDCCCBCAC8C7C6C5C4C2C1C0BFD0
:10229000BEBDBCBBBAB9B8B7B6B5B4B3B2B1B0AFD6
:1022A000AEADACABAAA9A8A8A7A6A5A4A3A3A2A1BA
:1022B000A09F9F9E9D9C9C9B9A9999989797969575
:1022C00095949393929191908F8F8E8E8D8C8C8B11
:1022D0008B8A898988888787868585848483838299
:1022E000828181800000FF070000F87F4FEA4103F0
:1022F0004FEA5353A3F58063D3F11E03C8BFD3F154
:10230000210C0CDD4FF0004242EAC12242EA505259
:1023100032FA03FC8CEAE17CACEBE1707047102BE5
:10232000C4BF0020704703F5787CBCF1FF3F04D0A8
:102330006FF0004282EA2100704770B500F0DAF8D1
:102340004992248000207047F2E710F0004248BF15
:102350004042B0FA80F310FA03F10AD0C3F11D0332
:1023600003F580634FEA415002EB035202EBD121A7
:1023700070474FF000007047B0FA80F310FA03F195
:102380000AD0C3F11D0303F580634FEA41504FEAC1
:10239000035202EBD12170474FF00000704700005C
:1023A000DFF848C170B51CEA111E1EBF1CEA1315E8
:1023B0009EEA0C0F95EA0C0F00F06F8081EA03048F
:1023C00023EA4C134EEAD47E21EA4C1141F48011E9
:1023D00043F48013AE44A1FB024CA0FB0365AEF1B5
:1023E0007F7E361955EB0C05A1FB034C4CF1000325
:1023F000A0FB021C16EB0C06654153F100030942D9
:1024000018BF46F0010613F4007F0BD14FEA0331E9
:102410004FEA0530340341EA155140EA16506FF097
:1024200003020AE04FEAC3214FEAC520F40241EA61
:10243000555140EA56506FF0020202EB2E4201EB7A
:10244000025585EACE710AD05FEA440C18BF24F029
:10245000004450F1000041F1000120EAD47040F244
:10246000FE7C624500D270BDA84214BF4FF080448C
:102470004FF04044002E08BF0024BEF1806FA8BF7B
:10248000A1F1C041BDE8704080F282804FF00000B1
:1024900001F1C04101F0004170479EEA0C0F0CEAC7
:1024A000131518BF95EA0C0F06D04FF0000081EA13
:1024B000030E0EF0004170BD00F01CF88900013ED3
:1024C00000F007B800F009B84FEA430C5FEA5C5C23
:1024D00008D081EA030100F05BB84FEA410C5FEAE3
:1024E0005C5CF6D14FF00000014970470000FF0727
:1024F0000000F87F0EF1020E2EF0030E5EF8046B62
:10250000364205D4012A43EB030515F5001F12D806
:10251000012841EB010C1CF5001F0CD80ED14FEA2D
:10252000D17C15F5001F0CEB4C0C0CF1020C08BF14
:102530004CEBD37C04E04FF0080C01E04FEAD37C75
:102540000CEB4C0526FA05F606F00706B6F1040C6E
:1025500006D20EEB860CBDE870404CF0010C6047D3
:10256000DFE80CF0090B02024FF000414FF00000D1
:10257000A1F5002170BD19461046012851EB010458
:1025800018BFD4F5001484BF002001F0004170BDD5
:102590000808A0F500114FEA3101704791EA030FD6
:1025A00010B581F000413FF5A1AC83F0004300F08D
:1025B00009B8000010B591EA030F48BF83F000434B
:1025C0003FF594AC841A71EB030C07D212198CF00E
:1025D000004C43EB0C03001B61EB0C01DFF8A4E1A2
:1025E0004FEA1154A4EB135C1EEA430F18BF9EEA96
:1025F000445F00F0B08023EA6E03524221EA0451A6
:10260000C3EB6E0338BF5B1EDCF1200E25D322FA2C
:102610000CFE10EB0E0043FA0CFE41EB0E01CCF168
:10262000200E03FA0EFE10EB0E0051F10001CCF16A
:10263000200E29D412FA0EF201EB0451BDE810402D
:1026400058BF7047401C1CBFB2F1004F70470028B4
:102650000CBF491C20F00100704712EB020E43EB47
:10266000030218BF4FF0010E4EEA4202ACF1200CFB
:10267000DCF11E0E54D943FA0CFE10EB0E0051F1A2
:10268000FF31CCF11E0ED5D50EF1010E12FA0EFE61
:10269000404141EB010101EB445C5FEA5C5C10D915
:1026A00010EBDE7001EB045138BFBEF1004FBDE806
:1026B000104018BF704700280CBF491C20F00100D3
:1026C000704730D24FEAD42C11F5001124F4006485
:1026D0001BD0B1FA81F20B3AA41AA41ED2F1200346
:1026E000914030FA03F31943904001EBCC71002C78
:1026F00001EB0451BDE81040A8BF704701F1C04193
:102700004FF0000001F000417047B0FA80F310FA7A
:1027100003F100D110BDE41A173C4805C90AE4E7EB
:1027200001EB045110BD491001EB0451BDE810400C
:102730004FEA300002E04FF0000170474A0008BF46
:102740000042F8D0B2F5001F28BF704701F00041E9
:102750004FF0000070479EEA445F07D011EA5E0F19
:10276000BDE8104004BF002100207047BDE81040C4
:1027700070B5FFF7BFFE00BF40DFF63E83F00041BB
:10278000104670470000E0FFFDF7EABE0CF00F03B3
:10279000092B08BF082000F059800A2B0BD0082B0A
:1027A00018BF704708BF1CF0400F0AD04FF0000060
:1027B0004FF0000170471CF0400F18BF4FF0004071
:1027C00070471CF0100F08D020F0704300F07F42DB
:1027D00042EAD3014FEA4370704700F0604021F0B5
:1027E0007F4242EA000201F07F4040EA7270704787
:1027F0004FF0FF0C4CF4E06C1CEA11531CBF9CEA38
:10280000030C9445C2BFDA4201EB02517047002B22
:102810000DD0BCF1000F0FD0002A01F00041A4BF81
:1028200041F0E04141F07F614FF00000704701F05E
:1028300000414FF00000704750EA01334FF09B0C0D
:1028400018BF4CF0806C7FF4F1AB70471CF4801F14
:1028500011D01CF4E02F03D06FEACC31490070474F
:102860004FF04050EFF3008222F0704242EA000243
:1028700082F3008870474FF00000704700000000AE
:102880004C5555555555A53F7751C1166CC156BF8E
:102890009015CB19A001FA3EAD529C804F7E92BE9E
:1028A000C4B1B4BD9EEE213ED43888BEE9FAA8BDBD
:1028B00000004054FB21F93F3163621A61B4D03DFE
:1028C0000000601A61B4D03D7370032E8A19A33BD7
:1028D0000000002E8A19A33BC14920259A837B3929
:1028E00000000000000000006E83F9A22915444E8C
:1028F000D15727FCC0DD34F5999562DB4190433C0C
:10290000AB6351FE61C5BBDE3A6E24B7E0D24D42E7
:10291000EA2E49061C92D1091CEB1DFE3EA729B1E7
:10292000F53582E88444BB2E26709CE9417E5FB475
:1029300039D69139F43953838B5F849C3B28F9BD98
:10294000FF97F81F0F9805DE8B112FEF1F6D0A5AA6
:10295000CF7E366DB709CB27663F464F2DEA5F9E87
:10296000C7BA27757BF1E5EBF739073DEA92528A42
:10297000B15FFB6B085D8D1FA6F810111111813F2F
:10298000D561C119A0012ABF7DFEB157E31DC73E25
:10299000EB9C2B8AE6E55ABE7CD5CF5A3AD9E53D69
:1029A00002400000000000A0000000000540000000
:1029B000000000C8000000000C4000000000409C27
:1029C00000000000194000000020BCBE0000000014
:1029D00034400000BFC91B8E00000004B540000059
:1029E000504BCFD06607E2CF010000006C410000E1
:1029F0003E8251AADFEEA73401000000D942000058
:102A0000DCB5A0E23A301F97FFFFFFFFB44500009E
:102A1000FD25A0C8E9A3C14FFFFFFFFFFF3F000056
:102A20000000008000000000FF3F00000000008068
:102A300000000000702A00080000002018000000BC
:102A400028010008882A00081800002060060000FD
:102A5000440100081C00000043000000F8FFFFFFD5
:102A60000C0000000E0000000F0000002E0000000F
:102A7000020406080000000001020304010203042E
:082A8000060708090000000030
:04000005080000ED02
:00000001FF
