:030000000208D51E
:0C08D500787FE4F6D8FD75815202091C02
:1007E700120003D2AFE4F50BF50AF509F508AF0BD4
:1007F700AE0AAD09AC087B007A00790C751D0A12A8
:1008070006B87B007A00790C1209D27F2C120017E8
:10081700AF0BAE0AAD09AC08EC1202C4E4FBFA79DF
:100827008078431202277BDB7A0F794978411201DE
:100837001E1205A87B007A40791C784612011E1209
:1008470003027B007A00790C751D0A1206B87B003B
:100857007A00790C1209D27F2C120017AF0BAE0A5F
:10086700AD09AC08EC1202C4E4FBFA7980784312B4
:1008770002277BDB7A0F7949784112011E12059214
:100887007B007A40791C784612011EE4FBFA79FA5C
:1008970078C412002D1203027B007A00790C751DB3
:1008A7000A1206B87B007A00790C1209D27F0A1265
:1008B7000017E4FAF9F8E50B2401F50BEA350AF518
:0E08C7000AE93509F509E83508F5080207F5D4
:1009F70011213031323334353637383941424344A7
:030A070045460061
:1000030075985075D7E875D6FF758E15E4F552C20D
:0400130000D2AC2249
:030023000209A52A
:1009A500C0E0C0D075D000C000C007309904C2991E
:1009B500C20030980FC298AF52055274322FF8A674
:0D09C5009953520FD007D000D0D0D0E032AF
:080017002000FDD2008F9922A8
:1009D2008B168A178918AB16AA17A9181203D060AA
:1009E200130518E5187002051714F91203D0FF1247
:0509F200001780E22265
:0E06B8008F198E188D178C168B1A8A1B891CB1
:1006C600E4F51EF51FD201AF1DC3EF9402748094AA
:1006D60080400AD3EF94107480948040037F0022F8
:1006E600AF19AE18AD17AC16EC33500D1204388F97
:1006F600198E188D178C16C201AF1DAB07E4FAF9D7
:10070600F8AF19AE18AD17AC1612096174212BF8A3
:10071600E6AB1AAA1BA91CAE1F051F8E82758300A5
:10072600120416AF19AE18AD17AC16C007AF1DAB45
:1007360007E4FAF9F8D0071209618F198E188D1798
:100746008C16E4FFFEFDFCAB19AA18A917A816D350
:1007560012044650A4200114AB1AAA1BA91CAF1FF1
:10076600051F8F82758300742D120416E4F51EE5AD
:100776001FC313FFE51EC39F5054AB1AAA1BA91C27
:10078600851E827583001203E9851F827583001218
:100796000416C3E51F951EFFE49400FE74FF2FF5B3
:1007A6008274FF3EF5831203E9851E82758300126B
:1007B6000416851F827583001203E9FD74FF2FF569
:1007C6008274FF3EF583ED120416051E80A1AB1A56
:1007D600AA1BA91C851F82758300E4120416AF1F8D
:0107E60022F0
:1000260002036EE86480F8E933E83360110460F097
:10003600ED33EC337009E8FCE9FDEAFEEBFF220440
:1000460060DED3EB9FEA9EE99DE8C2E78CF0C2F73B
:1000560095F0400CE8CCF8E9CDF9EACEFAEBCFFB07
:1000660012033985D0F05804700320D5B3E8047024
:10007600075002B2D502037892D5EC0460F7E4CCBF
:10008600C0E0C398F8603B94186008400DD0E0FBD0
:10009600020350E4FBFAC9FC8028E830E406E4C910
:1000A600FBE4CAFCE830E305E4C9CACBFCE8540724
:1000B6006010F8C3E913F9EA13FAEB13FBEC13FC2F
:1000C600D8F130F52FC3E49CFCEF9BFFEE9AFEEDD2
:1000D60099FDD0E0FBEF4E4D4C701222DB0302037C
:1000E60075EC2CFCEF33FFEE33FEED33FDED30E720
:1000F600EB020350EF2BFFEE3AFEED39FDD0E0FBAD
:1001060050130BBB0003020378ED13FDEE13FEEF55
:0801160013FFEC13FC0203507F
:10011E00EC4D6011E8497017ED33EC3304600DE4DB
:10012E00FCFFFEFD22E933E8330470F802036E1281
:10013E00033958046009E4CC248150062850090282
:10014E000378284003020375C0E0EB4A7044B9807F
:10015E0006D0E0FB020364EF4E701CBD8008EBFF7F
:10016E00EAFEE9FD80EBE98DF0A4FEE5F002020760
:10017E00E9CDF9EAFEEBFFEF89F0A4FCE5F0CE89BC
:10018E00F0A42EFFE435F0CD89F0A42DFEE435F079
:10019E008067EF4E7005BD80D780C3EF8BF0A4ACA7
:1001AE00F0EE8BF0A42CFCE435F0F8EF8AF0A42CE2
:1001BE00E5F038FCE433CB8DF0A42CFCE5F03BF8F5
:1001CE00EE8AF0A42CFCE5F038F8E433CF89F0A4E5
:1001DE002CFCE5F038CF3400CE89F0A42FFFE5F0EB
:1001EE003EFEE433C98DF0A42EFEE5F039CD8AF043
:1001FE00A42FFFE5F03EFEE43DFD33D0E0FB5007BB
:10020E000BBB000F020378EC2CFCEF33FFEE33FE3A
:06021E00ED33FD02035068
:10022400020378EC5D046005E85904700302036E70
:10023400120339580460F6EC4860F2EC7004FDFED9
:10024400FF22C860DB2481C85009C39860025006AD
:100254000203759850CAF582E9294B4A7005AB82AE
:1002640002036475F0007C1A7880C3EF9BEE9AED6C
:1002740099400DC3EF9BFFEE9AFEED99FDE842F025
:10028400DC23ACF0D0E0FFD0E0FED0E0FDAB822078
:10029400E7101BEB60BAEC2CFCEF33FFEE33FEED02
:1002A40033FD020350E803F830E705C0F075F000B1
:1002B400EF2FFFEE33FEED33FD40B830E7C280AAE6
:1002C40075F020800E75F010800575F0087D007EB5
:1002D400007F003392D530D503120438EC3340103C
:1002E400EF33FFEE33FEED33FDEC33FCD5F0ED22BE
:0E02F400E5F0247EA2D513CC92E7CDCEFF22FA
:10030200EDD2E7CD33EC3392D524814006E4FFFEF3
:10031200FDFC22FCE4CFCECDCC24E0501174FF8052
:10032200EDC3CC13CCCD13CDCE13CECF13CF0470EF
:07033200F030D5DE020438B3
:10054A003A70FA83BCAAE9E43E81E0F8BF9DE9E685
:10055A003F80000039283C1ABB9969663DA335E300
:10056A00BF255DE73FC90FDB418DDBCCC44936EEC1
:10057A0045C9913FC5B0F83D3F800000C317F53427
:10058A00452FFA73C60AFDDD12063904A2E192016B
:10059A001420E01590054A7404120383802612067B
:1005AA003930E102B20120E0EB8C168D178E188FDC
:1005BA001990055E7404120383A816A917AA18AB2A
:1005CA001912011EED4C6007300104EC6480FC2214
:1005DA00120639C0E08C168D178E188F1990058275
:1005EA007403120383A816A917AA18AB1912011EBD
:1005FA00ECC516FCEDC517FDEEC518FEEFC519FFD3
:10060A009005727403120383D082A816A917AA1838
:10061A00AB19E58230E007120227B20180A6EFCBC0
:10062A00FFEECAFEEDC9FDECC8FC1202278095ED6B
:10063A0033EC547FCC33920124605007D0E0D0E0F1
:10064A0002036E7B837AF97922783E12011EEDF954
:10065A0033ECF83324815011EFFBEEFA1203021245
:10066A0002C4ECB2E7FC12002DED33EC33602F2408
:10067A0003F8C313FCED92E7FDE82481E4501FEC74
:10068A00F8EDF9EEFAEFFB120302EF04C2E0FCF513
:10069A00821202CEECB2E7FC12002DE58203FAEDDB
:0E06AA0033EC3360071413FCED92E7FDEA22F7
:10033900E9D2E7C933E833F892D5EDD2E7CD33EC0A
:0703490033FC5002B2D52283
:10035000EC30E7100FBF000C0EBE00080DBD00040E
:100360000BEB6014A2D5EB13FCED92E7FD2274FFBA
:10037000FCFDFEFF22E480F8A2D574FF13FC7D8013
:03038000E480EF27
:10038300C0E0EFFBEEFAEDF9ECF812011ED0E0F558
:10039300F0EFFBEEFAEDF9ECF812045CA3A3A3A3D0
:1003A300E8C0E0E9C0E0EAC0E0EBC0E0C0F0120161
:1003B3001E12046CA3A3A3A312002DD0F0D0E0FB64
:0D03C300D0E0FAD0E0F9D0E0F8D5F0D42277
:1008E1000207E7E493A3F8E493A34003F68001F23F
:1008F10008DFF48029E493A3F85407240CC8C33318
:10090100C4540F4420C8834004F456800146F6DFE6
:10091100E4800B01020408102040809009F7E47E76
:10092100019360BCA3FF543F30E509541FFEE493DB
:10093100A360010ECF54C025E060A840B8E493A3A2
:10094100FAE493A3F8E493A3C8C582C8CAC583CACD
:10095100F0A3C8C582C8CAC583CADFE9DEE780BE85
:010A0A0000EB
:1003D000BB010689828A83E0225002E722BBFE022B
:0903E000E32289828A83E493225E
:1003E900BB010CE58229F582E5833AF583E02250C9
:1003F90006E92582F8E622BBFE06E92582F8E22213
:0D040900E58229F582E5833AF583E493222C
:10041600F8BB010DE58229F582E5833AF583E8F01C
:10042600225006E92582C8F622BBFE05E92582C8C8
:02043600F222B0
:10096100C2D5E830E70FB2D5E4C39BFBE49AFAE4C1
:1009710099F9E498F8EC30E717B2D5120997120407
:10098100B8E4C39BFBE49AFAE499F9E498F880038C
:100991001204B830D50DE4C39FFFE49EFEE49DFD33
:0409A100E49CFC22B4
:0E043800C3E49FFFE49EFEE49DFDE49CFC22D5
:10044600EB9FF5F0EA9E42F0E99D42F0EC6480C82D
:0604560064809845F022CD
:10045C00E493FC740193FD740293FE740393FF22E6
:10046C00E493F8740193F9740293FA740393FB22E6
:10047C0075F008758200EF2FFFEE33FECD33CDCC37
:10048C0033CCC58233C5829BED9AEC99E5829840BA
:10049C000CF582EE9BFEED9AFDEC99FC0FD5F0D697
:1004AC00E4CEFBE4CDFAE4CCF9A88222B800C1B9C1
:1004BC000059BA002DEC8BF084CFCECDFCE5F0CBFF
:1004CC00F97818EF2FFFEE33FEED33FDEC33FCEB38
:1004DC0033FB10D703994004EB99FB0FD8E5E4F9F3
:1004EC00FA227818EF2FFFEE33FEED33FDEC33FCE0
:1004FC00C933C910D7059BE99A4007EC9BFCE99AD4
:10050C00F90FD8E0E4C9FAE4CCFB2275F010EF2F18
:10051C00FFEE33FEED33FDCC33CCC833C810D70718
:10052C009BEC9AE899400AED9BFDEC9AFCE899F853
:0E053C000FD5F0DAE4CDFBE4CCFAE4C8F922E6
:00000001FF
