:020000040800F2
:100000005807002099020008D12400082524000880
:10001000CD240008450D0008052B00080000000055
:10002000000000000000000000000000D9240008CB
:10003000490D000800000000D5240008DD24000858
:10004000B3020008B3020008B3020008B3020008BC
:10005000B3020008B3020008B3020008B3020008AC
:10006000B3020008B3020008B3020008B30200089C
:10007000B3020008B3020008B3020008B30200088C
:10008000B302000800000000B3020008B302000839
:10009000B3020008B3020008B3020008B30200086C
:1000A000B3020008B3020008B3020008B30200085C
:1000B000B3020008B3020008B3020008B30200084C
:1000C000B3020008B3020008B3020008B30200083C
:1000D000B3020008F92A0008B3020008B3020008BE
:1000E000B3020008B3020008B3020008B30200081C
:1000F000B3020008B3020008B302000800000000C9
:1001000000000000B302000800000000B302000875
:10011000B302000800000000B3020008B3020008A8
:10012000B3020008B3020008B3020008B3020008DB
:10013000B30200080000000000000000B302000845
:10014000B3020008B3020008000000000000000035
:10015000000000000000000000000000000000009F
:10016000000000000000000000000000B3020008D2
:10017000B3020008000000000000000000000000C2
:1001800000000000B30200080000000000000000B2
:10019000000000000000000000000000000000005F
:1001A0000000000000000000B3020008B3020008D5
:1001B000B3020008B3020008B30200080000000008
:1001C00000000000B3020008000000000000000072
:1001D000B3020008B302000800F002F800F04CF887
:1001E0000AA090E8000C82448344AAF10107DA4592
:1001F00001D100F041F8AFF2090EBAE80F0013F098
:10020000010F18BFFB1A43F001031847C046000056
:10021000E0460000103A24BF78C878C1FAD85207E7
:1002200024BF30C830C144BF04680C607047000070
:100230000023002400250026103A28BF78C1FBD8EF
:10024000520728BF30C148BF0B607047662904F0D1
:100250003282642900F0F880002070471FB504F056
:100260001DFA00F0DBFB04000020002103F0A0FDDC
:10027000E0601FBD10B510BD00F0F0FC1146FFF7A7
:10028000EDFF02F051FC00F00EFD03B4FFF7F2FFAA
:1002900003BC00F04FFD00000948804709480047B3
:1002A000FEE7FEE7FEE7FEE7FEE7FEE7FEE7FEE726
:1002B000FEE7FEE704480549054A064B7047000083
:1002C00081250008D90100085801002058070020A6
:1002D000580300205803002053EA020C00F0698004
:1002E0002DE9F04B4FF00006002B1FBFB3FA83F54A
:1002F00003FA05F424FA05F65E4012BF1643B2FA7B
:1003000082F502FA05F4C5F120051EBF22FA05FCAC
:1003100044EA0C04203556EA044C4FEA144418BF52
:10032000641C4FF000084FF00009904271EB030C81
:1003300039D3002919BFB1FA81F701FA07F6B0FAEB
:1003400080F700FA07F6C7F120071EBF20FA07FC66
:1003500046EA0C062037B6FBF4FCA7EB0507103F76
:1003600007F01F0BCBF120062CFA06F60CFA0BFB5C
:1003700044BFB3460026202FA4BF5E464FF0000BBB
:100380005BEA060C08BF4FF0010B19EB0B0948EBB9
:100390000608ABFB027C06FB02CC0BFB03CCC01BAC
:1003A00071EB0C01C1E70B46024641464846BDE8E9
:1003B000F08B13B5084318BF4FF0FF300146AFF381
:1003C0000080BDE81C4070470FB4044910B503AA73
:1003D000029800F011FB10BC5DF814FB70000020C7
:1003E0002DE9F0410E460446002020622046E168D7
:1003F000884730B3252805D0D4E901219047206AE9
:10040000401CF2E7E168204600278847050018D025
:10041000A5F14100192802D820354FF40067324673
:10042000294620462760FFF711FF40B1012804D07C
:10043000F61D26F007060836D8E7361DD6E728460B
:10044000DAE7206ABDE8F0812DE9F0410646002494
:1004500010687529314616A510D0AFF3008000282A
:1004600002DA404213A507E031688A0701D512A5D8
:1004700002E0490704D511A5012401E0AFF3008093
:1004800000210A2206F1240709E0B0FBF2FCB0FBD0
:10049000F2F302FB1C00303078541846491C002847
:1004A000F3D123462A463046BDE8F04100F03DB87E
:1004B000000000002D0000002B00000020000000C4
:1004C0004FF0000200B5134694469646203922BFED
:1004D000A0E80C50A0E80C50B1F12001BFF4F7AF38
:1004E000090728BFA0E80C5048BF0CC05DF804EB1A
:1004F000890028BF40F8042B08BF704748BF20F888
:10050000022B11F0804F18BF00F8012B7047704785
:100510007047704710B500F085FA006810BD10B53F
:10052000044600F07FFA046010BD2DE9F0470D4647
:1005300099469246044600F124080168880604D5CD
:10054000E06921F01001216000E00120A84201DDF6
:10055000471B00E00027A1697A1902EB0900081A7D
:10056000A0612078C00602D42046AFF300800026A8
:1005700008E0D4E901211AF806009047206A401CDF
:10058000761C20624E45F4DB2078C0060AD5204652
:10059000AFF3008006E0D4E9012130209047206AC3
:1005A000401C2062381EA7F10107F4DC07E0D4E903
:1005B000012118F805009047206A401C2062281E7F
:1005C000A5F10105F3DC2046AFF30080207800069A
:1005D00002D50220BDE8F0870120FBE72DE9FF4F9F
:1005E0000C461E464FF0FF378BB0D2E90001DDF814
:1005F00060800A908A46C1F30A5505B93D4600213C
:1006000008464FF00000BAF1000F00F4400005DA90
:1006100000EB80004FF4400101EA50004FEA90598E
:10062000B9F1010F00DDB9460A9850EA4A000ED030
:1006300044F61050A5F2FF3545432F14B8F1000FD2
:100640001ED07542291E1EDDC9F100021CE0B8F162
:10065000010F4FF0000001D0302103E0F24305E02C
:100660002154401CB042FBDB3046002200212154C3
:100670000B99C1F80880C1E900200FB0BDE8F08FE8
:10068000BD1B6D1CDEE74A4600DA694206A800F091
:100690006BFA06AB93E8070003AB83E8070050460C
:1006A0000A9902F0BBFA8DE80700A0F500501F3848
:1006B00000900398002D0ADD42F21F014A460844CB
:1006C000002303A90390684602F024FD09E0A0F589
:1006D00000504A461F38002303A90390684602F0E1
:1006E0002EFD8DE807000004000C03D04FF0FF3012
:1006F000410800E01046B8F1000F03D0002200923C
:1007000015461EE0751E05D400F090F93032625592
:100710006D1EF9D5B3460122084302D000227F1C8A
:1007200004E02078302801D100227F1E002A09979A
:1007300084D01DE0112D07DA00F078F930326255CF
:100740006D1C50EA0102F5D1084302D00098C8B1EF
:100750000EE00021681E05E0235C625C63542254B5
:10076000401E491C8142F7DBAB46A81B401E099086
:10077000002004F80B000B98099AC0F80880C0E923
:10078000002B7AE711264FF0000857E72DE9F04FCC
:1007900088460446D21D22F0070191B0D1E900013C
:1007A000CDE90A0102F002FE02460B98C00F01D00B
:1007B0002D2007E02068810701D52B2002E02021B1
:1007C00001EAC000032A099001D0072A05DB03468D
:1007D0004146204600F088F90BE12078800601D5DB
:1007E000E06900E00620B8F1650F814606D0B8F157
:1007F000660F18D0B8F1670F70D131E00020B9F161
:10080000110F009001DB112301E009F101030AAA95
:1008100001A90CA8FFF7E2FEDDE90C70002609F142
:100820000105834647E001204B4600904FF000470A
:100830000AAA01A90CA8FFF7D1FEDDE90DB00C99B9
:100840005D46002610B909F101000D18B9EB05004D
:1008500003D4C0F1FF3609F10105A5EB09002BE037
:10086000B9F1010F01DA4FF001090020B9F1110FC0
:100870000090484601DD112300E003460AAA01A9C1
:100880000CA8FFF7ABFEDDE90C704D460026834651
:10089000207800070AD4AB4500DA5D4601A8012D97
:1008A00004DD411911F8011C302907D04F4502DA47
:1008B00017F1040F04DA012082460FE06D1EEEE707
:1008C000002F02DCED1B3E4403E0781CA84200DD53
:1008D0007D1CB81B00F1010A4FF00047207800078B
:1008E00003D4AA4501DB4FF0FF3A0021B7F1004FD6
:1008F0000DF143088DF8431024D002202B23002F44
:1009000001DA7F422D230A21021EA0F1010000DC42
:100910005FB197FBF1FC97FBF1F201FB1C7C1746E2
:100920000CF1300C08F801CDEEE7A8F101000370DE
:100930002188090501D5452100E06521A0F10108C4
:1009400000F8011C09980FA9A1EB0807FF1D00B1D1
:100950000120411901EBEA70A1693844081A401ED0
:10096000A0612078C00602D42046AFF30080099829
:1009700028B1D4E901219047206A401C20622078E8
:10098000C00622D52046AFF300801EE0002E04DB17
:10099000B34502DD01A8805D00E03020D4E90121EB
:1009A0009047206A401C2062761CAAF101005FEA91
:1009B000000A0AD100F032F8C0680168405CD4E94E
:1009C00001219047206A401C2062281EA5F10105E4
:1009D000DCDC07E0D4E9012118F8010B9047206A1C
:1009E000401C2062381EA7F10107F3DC2046AFF35C
:1009F0000080032011B041E6074B70B50D467B44E3
:100A000000F05FF80446284600F020F910B14FF0DE
:100A1000FF3070BD204670BD0721000000487047C0
:100A200030000020004870471000002030B5B0F1C1
:100A30000A0271F100034FEA900E4EEA817EB0EB9C
:100A40000E0061EB91014FEA101E4EEA017E10EBA1
:100A50000E0041EB11114FEA102E4EEA016E10EB21
:100A60000E0041EB11214FEA104E4EEA014E10EB01
:100A70000E0041EB1141401841F100014FEAD00056
:100A800040EA41704FEAD1014FEA810444EA907490
:100A900010EB800544EB01046D1944EB0404521B78
:100AA000A3414FF0000348BF0A3200D530BD401CBF
:100AB00041F1000130BD000001694A1C0261087863
:100AC000704700B58FB0CDE901310021059105498E
:100AD0007944CDE9031011466846FFF781FC0FB059
:100AE00000BD0000E5FFFFFF2DE9F0411F46044671
:100AF00003260168072A01F4006004DB08B116A58B
:100B000005E016A503E008B115A500E015A521F044
:100B100010002060A069C01EA0610FB1401EA0613E
:100B20002046AFF300804FB1D4E901213846904709
:100B3000206A401C2062C01C206206E0206AFAE79E
:100B4000D4E9012115F8010B9047761EF8D2204612
:100B5000AFF30080BDE8F0814E414E006E616E0043
:100B6000494E4600696E66002DE9F04781461646FB
:100B70008AB0354878440DC88DE80D003248784475
:100B8000801C03AC0DC884E80D0041F69B3008447E
:100B9000372190FBF1F290FBF1F5A5F1800501FB07
:100BA00012041B3C02D56442012000E00020DFF863
:100BB00098A080460027FA44AAF1BE0A0EE0E0079A
:100BC0000AD03246684607EB470101230AEB810150
:100BD00002F0B5FA8DE8070064107F1C002CEED1FE
:100BE000194F7F44AE3F19E0E80715D007EB04101A
:100BF0000DF1180A90E80E008AE80E00C068F04275
:100C000001D1981908903246012306A903A802F0E1
:100C100096FA03AB83E807006D10641C002DE3D146
:100C20004FF0010332466946B8F1000F03A802D025
:100C300002F070FA01E002F082FAC9E90001C9F895
:100C400008200AB0BDE8F087EC3C0000007B00F013
:100C50008000704700487047100000207546FFF77D
:100C6000F9FFAE4605006946534620F00700854669
:100C700018B020B5FFF71EFBBDE820404FF000067E
:100C80004FF000074FF000084FF0000BAC46ACE807
:100C9000C009ACE8C009ACE8C009ACE8C00921F063
:100CA00007018D46704710B50446AFF3008020461B
:100CB000BDE81040FFF7E9BA30B44FF0013C50F8FE
:100CC000042B51F8043BCCFA52F4D51A20D1FCB9CC
:100CD00050F8042B51F8043BCCFA52F4D51A17D132
:100CE000B4B950F8042B51F8043BCCFA52F4D51A9D
:100CF0000ED16CB950F8042B51F8043BCCFA52F4E5
:100D0000D51A05D1002CDAD030BC4FF00000704766
:100D100029BAB1FA81F111F01801D1F12000844013
:100D2000F2D1CA40CB4012F0FF0213F0FF0330BCF7
:100D3000D01A704701491820ABBEFEE7260002001A
:100D400070470000FEE7000070470000EFF31080DE
:100D500072B600BFFEE7000080B5014690F825009E
:100D6000022825D10868D1E910CE8A6C036823F0E7
:100D70000E030360136823F480731360026822F08B
:100D8000010202600EF01F00012202FA00F0CCF80E
:100D90000400D1E913205060486D68B1026822F464
:100DA00080720260D1E916024260002005E000BFB7
:100DB0000420C863012000E00020012281F82520E2
:100DC000002281F8242080BD80B590F825100229EA
:100DD0002ED10168D0E910CE826C0B6823F00E038F
:100DE0000B600B6823F001030B60116821F4807124
:100DF00011600EF01F02012101FA02F2CCF804206A
:100E0000D0E913325A60426D32B1136823F4807313
:100E10001360D0E91623536080F82510826B0021FF
:100E200080F824100AB190470021084680BD00BF19
:100E30000421C1630121002280F8251080F82420BC
:100E4000084680BD2DE9F04F85B00A680290002A5F
:100E500000F0E080029841F200458E4600F13847EC
:100E6000C4F6000506214FEAB726A84208BF0521AF
:100E7000052E38BF4FEAB7214FF0000C012600279E
:100E80004FF000080091CDF804E00DE0DEF80020FE
:100E900008F1010832FA06F107F1020706F101062E
:100EA0000CF1040C00F0B680A6F10109012101FA51
:100EB00009FB12EA0B01E9D0DEF804A00391BAF1B4
:100EC000120F00F29F80012101FA0AF212F0061FB0
:100ED00000F09880029803218468DEF80C2001FA63
:100EE00007F39C43BA40224382604268DC434FEAE6
:100EF0001A1322EA0B0203FA09F34FEA48051A43D0
:100F00004260C268DEF808302240AB401A434AF023
:100F10001003122BC26015D16FF0030101EA5902D0
:100F20000244D2F820A0A3460CF01C040F21DEF8E6
:100F30001030A1402AEA0101A34019431162DEF8F2
:100F400004A05C4601680AF003022140AA40114354
:100F50000160DDF804E0039D5FEACA0296D541F224
:100F60006002C4F20202116840F2004A41F001013D
:100F700011601168C4F2010A01F0010104910499A1
:100F800029F003014FF608495144CFF6FF7951F893
:100F900009200CF00C030F249C40A243009C04FA8F
:100FA00003F31A4341F80920DAF80010DEF80420B0
:100FB00041EA0503D40358BF21EA0503CAF800300B
:100FC000DAF80410940341EA050358BF21EA050347
:100FD000CAF80430DAF80810D40241EA050340F2F6
:100FE0000C4458BF21EA0503CAF80830C4F20104D2
:100FF0002168920241EA050358BF21EA05032360F4
:1010000044E700BF032101FA07F20298D4433D46AA
:1010100077E700BF05B0BDE8F08F000040F2541044
:10102000C2F200000068704740F2000040F2541124
:10103000C2F20000C2F2000140680A681044086071
:101040007047000080B5032000F08AF80F2000F000
:1010500009F800281CBF012080BD00F02BF80020FB
:1010600080BD000070B540F20006C2F20006716853
:10107000E1B1044640F20800C2F200004FF47A7277
:101080000068B2FBF1F1B0FBF1F000F0A3FE0F2C11
:101090004FF0010508D838B94FF0FF302146002243
:1010A000002500F031F83460284670BD012528463F
:1010B00070BD000082B041F25800C4F202008168A5
:1010C00041F001018160816801F001010191019904
:1010D000016841F080510160006800F0805000908C
:1010E000009802B000F0EAB8002848BF704700F04E
:1010F0001F01012202FA01F14EF200124009CEF264
:10110000000242F82010704710B54EF60C5CCEF28B
:10111000000CDCF80030C3F3022E8EF00704042C20
:1011200028BF0424BEF103034FF0FF3E0EFA04F47F
:1011300038BF0023A14399400EFA03F39A4300F00D
:101140000F03043B1143634409010C3300F1604277
:10115000B0F1FF3FC8BF02F56443197010BD000035
:101160004EF60C51CEF200010A684FF6FF031A400A
:1011700060F30A2242F0806040F0FD700860704722
:10118000B0F5007F48D0002840F08A8047F2140074
:10119000C4F2000050F8141CC26E01F4C06122F4C5
:1011A0008072B1F5806FC26633D150F8141C0122F1
:1011B00062F34A2140F8141C40F20801C2F2000117
:1011C0000968322251434DF68362C4F21B32A1FBFF
:1011D0000212910C02684B1C18BF12F4806213D0EB
:1011E0000268002918BF12F480620DD0026801293C
:1011F00018BF12F4806207D00268022904D012F4EA
:101200008062A1F10401E5D10068400544BF0320DC
:1012100070470020704700BF47F21400C4F200007E
:1012200050F8141CC26E01F4C06142F48072B1F532
:10123000806FC266EDD150F8141C012262F34A217E
:1012400040F8141C40F20801C2F200010968322281
:1012500051434DF68362C4F21B32A1FB0212910C82
:1012600002684B1C18BF12F4806213D00268002978
:1012700018BF12F480620DD00268012918BF12F461
:10128000806207D00268022904D012F48062A1F1C2
:101290000401E5D10068400544BF03207047B8E76A
:1012A00047F21400C4F2000050F8141C022262F34A
:1012B0004A2140F8141C00207047000047F2080043
:1012C000C4F20000016841F48041016070470000F1
:1012D0002DE9F04182B00446807841F2880600078B
:1012E000C4F2020602D400202FE000BF56F8300CF2
:1012F00010F080580BD156F8300C40F0805046F872
:10130000300C56F8300C00F080500190019847F2F4
:101310000007C4F20007386840F480703860FFF7B7
:101320007DFE05463868C00500F1D680FFF776FEE1
:10133000401B0228F6D90320B8F1000F05D156F85A
:10134000301C21F0805146F8301C2168CA0713D1A7
:101350008A0719D44A071FD40A0725D48A062BD432
:101360004A0631D40A0637D4CA053DD48A0543D487
:101370004A0549D457E000BF3268636822F003028F
:101380001A4332608A07E5D53268A36822F00C025E
:101390001A4332604A07DFD53268E36822F0300230
:1013A0001A4332600A07D9D53268236922F0C00295
:1013B0001A4332608A06D3D53268636922F44062E8
:1013C0001A4332604A06CDD53268A36922F44052EE
:1013D0001A4332600A06C7D53268E36922F44042F4
:1013E0001A433260CA05C1D53268236A22F44032FA
:1013F0001A4332608A05BBD53268636A22F4402200
:101400001A4332604A050ED53268A36A22F44012AC
:101410001A43B3F5801F326005D156F87C2C42F494
:10142000801246F87C2C0A050ED53268E36A22F455
:1014300040021A43B3F5800F326005D156F87C2C78
:1014400042F4801246F87C2CCA040ED53268236B15
:1014500022F040721A43B3F1807F326005D156F812
:101460007C2C42F4801246F87C2C8A040ED532681B
:10147000636B22F040621A43B3F1006F326005D112
:1014800056F87C2C42F4801246F87C2C4A040ED587
:101490003268A36B22F040621A43B3F1006F3260EE
:1014A00005D156F87C2C42F4801246F87C2C0904B5
:1014B0000ED53168E26B21F040511143B2F1805FEB
:1014C000316005D156F87C1C41F4803146F87C1C13
:1014D00002B0BDE8F08100BFB06810F4407010D0D9
:1014E000216C88420BD0B068B16820F4407041F4A0
:1014F0008031B160B16821F48031B160B060C00763
:101500000CD1B068216C20F440700843B06000201A
:10151000B8F1000F7FF419AF11E700BFFFF77EFDB0
:10152000054641F2883700BFB0688007E9D4FFF76D
:1015300075FD401BB842F7D9FDE600002DE9F047E4
:1015400000286DD042F2000AC4F2020A0446DAF81A
:1015500000000D4600F00F0088420CD2DAF80000BF
:1015600020F00F002843CAF80000DAF8000000F06D
:101570000F00A84254D1216841F20808C807C4F2FC
:10158000020803D1880740F1D880BDE060680228D6
:101590003AD0032840D158F8082C920140D5D8F809
:1015A0000420D8F8043042F2004702F00302C3F3EB
:1015B0000313C0F2F4070133032A04BF41F20027EA
:1015C000C0F27A07D8F80420B7FBF3F3D8F8047018
:1015D000C2F306225A43C7F34163022707EB4303D2
:1015E000B2FBF3F24BF20043C0F2C4439A4261D91A
:1015F000D8F8002012F0F00F51D089075AD5A16811
:10160000002957D14BE000BF58F8081C89035CBF84
:101610000120BDE8F08707E058F8081C490503D40D
:101620000120BDE8F08700BFD8F8001001F00C01E0
:1016300004293FD0D8F8001001F00C01082939D056
:10164000D8F8001001F00C010C2933D1D8F804109F
:10165000D8F8042042F2004301F00301C2F3031260
:10166000C0F2F4030132032904BF41F20023C0F2A7
:101670007A03D8F80410B3FBF2F2D8F80430C1F3BF
:1016800006215143C3F34162022303EB4202B1FB43
:10169000F2F14BF20042C0F2C44291420AD9D8F8AA
:1016A0000010082262F307114FF00109C8F800107A
:1016B00002E000BF4FF00009D8F8001021F003014C
:1016C0000843C8F80000FFF7A9FC064641F2883736
:1016D000D8F80000616800F00C00B0EB810F07D073
:1016E000FFF79CFC801BB842F2D90320BDE8F087CD
:1016F0002168880708D4B9F1000F1ED0D8F800007F
:1017000020F0F00017E000BF480705D5D8F800002A
:1017100040F4E060C8F80000080706D5D8F80000DB
:10172000072262F30D20C8F80000D8F80000A26874
:1017300020F0F0001043C8F80000DAF8000000F0D4
:101740000F00A8421BD9DAF8000020F00F00284350
:10175000CAF80000FFF762FC064641F2883700BF76
:10176000DAF8000000F00F00A84207D0FFF756FC9F
:10177000801BB842F4D90320BDE8F08721684807F0
:1017800007D5D8F80000E26820F4E0601043C8F8FC
:101790000000080708D5D8F80000216920F460503F
:1017A00040EAC100C8F80000D8F8000042F2004149
:1017B000C0F2F40100F00C00042808462DD0D8F83F
:1017C000000000F00C00082841F20020C0F27A006E
:1017D00023D0D8F8002002F00C020C2A1CD1D8F833
:1017E0000420D8F8043002F00302C3F303130133DA
:1017F000032A08BF0146D8F80400B1FBF3F1D8F87A
:101800000420C0F306204843C2F34161022202EBE8
:101810004101B0FBF1F000E00020D8F8001044F6E0
:101820007C02C1F30311C0F60002515C40F20802D1
:1018300001F01F0120FA01F140F20000C2F20000A5
:101840000068C2F200021160BDE8F047FFF70ABC71
:1018500040F2080041F20801C2F20000C4F20201A5
:101860000068096844F68C02C1F30221C0F6000248
:10187000515C01F01F01C8407047000040F20800B1
:1018800041F20801C2F20000C4F2020100680968D6
:1018900044F68C02C1F3C221C0F60002515C01F093
:1018A0001F01C8407047000041F20C01C4F2020160
:1018B00051F8040C42F20042C0F2F40200F00C00B5
:1018C0000428104608BF704751F8040C00F00C00C3
:1018D000082841F20020C0F27A0021D051F8043CDF
:1018E00003F00C030C2B1CBF00207047D1F800C084
:1018F0000B680CF0030CC3F303130133BCF1030FAB
:1019000008BF02460868B2FBF3F20968C0F306207C
:101910005043C1F34161022202EB4101B0FBF1F0FF
:10192000704700002DE9F04182B0002800F00681E8
:101930000446007841F20006C007C4F2020655D101
:101940002078800774D42078000700F197802078F1
:10195000400700F1B7802078800600F10781E06938
:10196000002840D0B16801F00C010C2940F05681EC
:10197000012800F0E380F068216A00F003028A4247
:1019800040F0DC80626A6FF00F0300F0F00103EBBF
:101990000212914240F0D280A16A00F4FE42B2EB02
:1019A000012F40F0CB80E16A00F07842B2EBC16FCA
:1019B00040F0C480226B0023CFF6E07303EB0252A9
:1019C00000F4C0016FF31402914240F0B780616BE4
:1019D0004FF07E4202EB016100F0C06001F07E41F9
:1019E000884240F0AB800020F1E100BFB06800F019
:1019F0000C01F06808295BD0032281F00C0122EA77
:101A000000000844B0FA80F0400951D16068B0F598
:101A1000803F07D0B0F5A02F40F0D680306840F46A
:101A200080203060306840F480303060D7E000BF04
:101A3000B068F16800F00C00042869D001F00301DF
:101A400080F00C0081F002010844B0FA80F04009F7
:101A50005ED1E1683068002900F0CE8040F48070EB
:101A60003060FFF7DBFA05463068400500F1EC8096
:101A7000FFF7D4FA401B0228F6D920E16169D6F8B5
:101A80009400002900F08C8040F00100C6F894001A
:101A9000FFF7C4FA054600BFD6F8940080073FF56B
:101AA00056AFFFF7BBFA401B0228F5D907E100BF8C
:101AB000306880037FF544AF606800287FF440AF52
:101AC0003CE000BFB06D10F0805808D1B06D40F020
:101AD0008050B065B06D00F080500190019847F2E1
:101AE0000007C4F200073868C0052BD4386840F4FA
:101AF00080703860FFF792FA054600BF3868C0056D
:101B000020D4FFF78BFA401B0228F7D9D7E000BF9B
:101B10003068400501D5E06880B17068216920F027
:101B2000FE4040EA0160706040F20000C2F2000036
:101B30000068FFF797FA00283FF405AF012002B0D4
:101B4000BDE8F081A068012808D0052840F09A80FF
:101B5000D6F8900040F00400C6F89000D6F8900047
:101B600040F00100C6F890009AE000BFA169D6F8E5
:101B70009800002970D040F00100C6F89800FFF7E7
:101B80004DFA0546D6F8980080073FF5E8AEFFF716
:101B900045FA401B02284FF00300F3D917E100BFBC
:101BA00020F00100C6F89400FFF738FA054600BFA0
:101BB000D6F8940080077FF5CAAEFFF72FFA401BD6
:101BC0000228F5D97BE000BF3168002821F480317C
:101BD0003160316821F48021316000F08F80FFF79F
:101BE0001DFA0546306880033FF5AAAEFFF716FAE6
:101BF000401B6428F6D962E020F480703060FFF763
:101C00000DFA0546306840057FF59DAEFFF706FAF0
:101C1000401B02284FF00300F4D9D8E031680228B5
:101C200021F0807131604FD1FFF7F8F9054600BF10
:101C30003068800140F18E80FFF7F0F9401B0228E8
:101C40004FF00300F4D9C2E07068216920F0FE4033
:101C500040EA0160706076E620F00100C6F8980066
:101C6000FFF7DCF9054600BFD6F8980080077FF53E
:101C700076AEFFF7D3F9401B02284FF00300F3D9EB
:101C8000A5E000BFD6F89010002821F00101C6F8A9
:101C90009010D6F8901021F00401C6F890103DD0B5
:101CA000FFF7BCF9054641F2883700BFD6F890002F
:101CB000800745D4FFF7B2F9401BB842F6D903209C
:101CC00002B0BDE8F08100BFF0684FF6FF7120F070
:101CD0000300F060F068CFF6EE610840F060FFF7B7
:101CE0009DF90446306880017FF57DAEFFF796F9D7
:101CF000001B02284FF00300F4D968E0FFF78EF9CB
:101D0000054600BF306880037FF51AAEFFF786F9FD
:101D1000401B64284FF00300F4D958E0FFF77EF928
:101D2000054641F2883700BFD6F89000800707D5F6
:101D3000FFF774F9401BB8424FF00300F4D946E0B6
:101D4000B8F1000F7FF407AEB06D20F08050B065A1
:101D500001E600BFF06848F20C01C0F29F1104F1E7
:101D6000200700EA010C8ECF6FF00F00D4E90C546D
:101D700000EB02100022CFF6E07241EA0C0102EB08
:101D8000055208436FF314024FF07E4540EA0320EA
:101D900005EB0465104305F07E4540EAC760284323
:101DA000F060306840F080703060F06840F0807023
:101DB000F060FFF733F90446306880013FF513AE59
:101DC000FFF72CF9001B02284FF00300F4D902B0F2
:101DD000BDE8F081411E0020B0EB116F1CBF012057
:101DE00070474EF21002CEF2000251604EF62351BF
:101DF000CEF20001F0230B70072190601160704754
:101E000090F88010012904BF022070472421C0F8F7
:101E1000841002681168136823F00103136021F035
:101E200000530021416613602022C0F8842080F80E
:101E3000801008467047000070470000704700009F
:101E4000B0B590F88020012A04BF0220B0BD242242
:101E5000C0F884200268D0F864E0D2F800C01368AB
:101E6000BEF1000F23F001031360936823F0606359
:101E700041EA0301916019D09368916844F6BC0E61
:101E8000490FC0F6000E44F6C4051EF80140C0F626
:101E90000005695CC3F34263E400B4FBF1F11EF892
:101EA0000340EB5CE500B5FBF3F301E00121012306
:101EB000A0F86A102021A0F86830C2F800C0C0F86D
:101EC0008410002180F880100846B0BDB0B590F8AD
:101ED0008020012A04BF0220B0BD2422C0F8842043
:101EE0000268D0F864E0D2F800C01368BEF1000FB9
:101EF00023F001031360936823F0604341EA030178
:101F0000916019D09368916844F6BC0E490FC0F6F1
:101F1000000E44F6C4051EF80140C0F60005695CD9
:101F2000C3F34263E400B4FBF1F11EF80340EB5C41
:101F3000E500B5FBF3F301E001210123A0F86A10ED
:101F40002021A0F86830C2F800C0C0F88410002139
:101F500080F880100846B0BD704700007047000050
:101F60007047000070B502680446D16940F62F0042
:101F70001668D2F808E0084020280BD106F02000AF
:101F80000EF08053C01823D0216FD1B32046BDE896
:101F90007040084740F60F00014219D00120C1F2FD
:101FA00000000EEA000C40F22010C0F20040304069
:101FB00010EB0C000CD0C80718BF16F4807040F06E
:101FC0007F8088070EF0010300F186808DE000BF5E
:101FD000E06E06EA0103DD0614D5012812D11020B7
:101FE0001062906840061BD4B4F85C00B4F85E1030
:101FF000B4F85E30002B1CBF401A5FEA004140F08D
:10200000F38070BDC8023DD51EF480003AD04FF475
:10201000801120461162BDE87040FFF79FBF00BFEE
:10202000E06F036859688DB2002DEAD0B4F85CC047
:102030006545E6D2A4F85E101968890618D41168BF
:1020400021F480711160916821F001019160916823
:1020500021F0400191602021C4F888100021E16640
:10206000116821F010011160FEF776FEB4F85CC033
:10207000B4F85E00ACEB000081B22046BDE87040D1
:10208000FFF7DABE08060BD506F080000EF4000557
:10209000401905D0616F00297FF478AFB1E700BF28
:1020A000580600F1BD80080240F1D08016F0804053
:1020B00000F0CC802046BDE87040FFF74DBF00BF68
:1020C00001201062D4F88C0040F00100C4F88C00AC
:1020D00088070EF0010308D53BB102201062D4F846
:1020E0008C0040F00400C4F88C00480708D53BB1D0
:1020F00004201062D4F88C0040F00200C4F88C0078
:1021000008070CD506F0200050EA0C0007D0082084
:102110001062D4F88C0040F00800C4F88C00080568
:102120000BD516F0806008D04FF400601062D4F830
:102130008C0040F02000C4F88C00D4F88C000028FB
:102140003FF45FAF11F020001EBF06F020000EF03C
:10215000805110EB010071D1D4F88C00916800F02F
:10216000280001F04001401836D010684FF6FE718B
:1021700020F4907010609068CEF6FF710840906077
:10218000E06E012803D1106820F0100010602020BC
:10219000C4F888000020E06620679068400615D5E6
:1021A000906820F040009060E06F78B142F2497191
:1021B000C0F600018163FEF707FE00283FF421AF5F
:1021C000E06F816BBDE87040084700BF2046BDE866
:1021D0007040FFF7C5BE00BF2046FFF7C1FE0020DC
:1021E000C4F88C0070BD00BF11684FF6FE7321F477
:1021F000907111609168CEF6FF73194091602021B3
:10220000C4F888100021E1662167116821F01003ED
:1022100081B220461360BDE87040FFF70DBE00BFDD
:102220001068002120F0400010602020C4F88400D5
:1022300020466167BDE8704000F0F2B8216F0029C8
:102240008AD020468847226886E700BFC8017FF50C
:10225000D8AEB6F1FF3FC8BF70BD2046BDE87040A4
:10226000FFF7ECBD10B5B0B10446D0F8840028B932
:10227000002084F88000204600F028F82420C4F8CC
:1022800084002068016821F001010160204600F00F
:1022900063FA012802D1012010BD00BFA06A10B16D
:1022A000204600F077F92168486820F490404860A3
:1022B000886820F02A008860086840F00102204603
:1022C0000A60BDE8104000F0D9B9000080B586B0C2
:1022D000006843F60001C4F20101884202D006B052
:1022E00080BD00BF41F24C00C4F20200416941F4DC
:1022F00080414161416901F4804101910199016886
:1023000041F001010160006801A900F001000190A5
:1023100001984FF4C0600190022002900020CDE9A6
:102320000300072005904FF09040FEF78BFD25201D
:1023300000210022FEF7E8FE2520FEF7D5FE06B0BC
:1023400080BD00002DE9F04381B00446D0F8840040
:1023500020280BD10E4600294FF001005CD0174613
:10236000002A59D094F88000012803D1022001B03E
:10237000BDE8F083012084F880004FF0000921209F
:102380001D46C4F88C90C4F88400FEF747FEA4F8FC
:102390005470A4F85670A1680746B1F5805F07D164
:1023A000206900281CBF30464E46B046064601E074
:1023B0004FF0000884F8809009E000BF16F8010B88
:1023C00021688862B4F856000138A4F85600B4F8C1
:1023D000560088B12046802100223B46009500F03F
:1023E0000BFB88B9002EE9D138F8020B21686FF396
:1023F0005F2088620026E5E72046402100223B4618
:10240000009500F0F9FA18B1032001B0BDE8F0839F
:102410002020C4F88400002001B0BDE8F083000053
:1024200070470000FEE7000081B041F24C00C4F2AA
:102430000200016841F001010160006800F0010044
:102440000090009801B0704780B540F2C40043F698
:102450000001C2F20000C4F2010100234FF00C0C95
:102460004FF4E13280E80E00C0E90333C0E905C350
:10247000C0E90733C0E90933FFF7F4FE002818BFAD
:10248000FEF764FC40F2C400C2F200000021FFF736
:102490001DFD002818BFFEF759FC40F2C400C2F22F
:1024A00000000021FFF7CCFC002818BFFEF74EFC0F
:1024B00040F2C400C2F20000FFF7A2FC002808BFEF
:1024C00080BDBDE88040FEF741BC0000FEE7000093
:1024D000FEE700007047000070470000FEF7A4BD53
:1024E00010B5A4B0002468464421CDE91B44CDE9D1
:1024F0001944CDE917441594CDE91344CDE91144AD
:10250000FDF7DEFF0020FEF73BFE4FF480711991CE
:1025100040211A91042102201F9155211690CDE9E6
:102520001D00CDE92010CDE9220016A8FFF7FAF929
:1025300020B1EFF3108072B6FEE700BF0F201190BC
:102540000320CDE9120411A80421CDE91444FEF7BB
:10255000F5FF28B1EFF3108072B600BFFEE700BFB1
:1025600001200090002001906846FEF7B1FE28B1DE
:10257000EFF3108072B600BFFEE700BF24B010BDBD
:102580004EF68850CEF20000016841F470010160FF
:102590007047000080B5816ACA070DD18A0716D43A
:1025A0004A071FD40A0728D4CA0631D48A063AD467
:1025B0004A0658D542E000BF0268D0F82CC05368E4
:1025C00023F4003343EA0C0353608A07E8D502681A
:1025D000D0F830C0536823F4803343EA0C035360CF
:1025E0004A07DFD50268D0F834C0536823F480234B
:1025F00043EA0C0353600A07D6D50268D0F838C006
:10260000536823F4004343EA0C035360CA06CDD554
:102610000268D0F83CC0936823F4805343EA0C036B
:1026200093608A06C4D50268D0F840C0936823F44A
:10263000005343EA0C0393604A0614D50268D0F8AD
:1026400044C05368BCF5801F23F4801343EA0C0395
:10265000536008D1D2F804C0D0F848E02CF4C0038D
:1026600043EA0E035360090658BF80BD0168C06C81
:102670004A6822F400221043486080BDB0B5044689
:102680000020C4F88C00FEF7C9FC216805460A68E2
:1026900012070DD4086840071CD42020C4F8840019
:1026A000C4F888000020E066002184F88010B0BDE6
:1026B000C8698002EED4FEF7B1FC2168421B0868AD
:1026C000B2F1007F2ED2400744BFC8695FEA0050D4
:1026D000EED510E0C8694002DFD4FEF79FFC216808
:1026E000421B0868B2F1007F1CD2400744BFC86992
:1026F0005FEA0050EED54FF400600862086820F4ED
:10270000D0700860886820F0010088602020C4F83C
:102710008400C4F88800C4F88C000320002184F8E9
:102720008010B0BD20F4D0700860886820F00100EF
:1027300088602020C4F88400C4F8880003200021A9
:1027400084F88010B0BD0000806A0021A0F85E10FF
:10275000A0F85610FFF704BC70B504462269D4E90E
:10276000021300680A436169E6691143026846F68C
:10277000F315CCF6FF7531432A40114301604168DF
:1027800048F2000C21F4405119434160A269C4F29F
:10279000000C60451CBF216A0A4381684FF2FF4369
:1027A000C1F2FF13194011438160C16AD4F824E0DB
:1027B00021F00F0141EA0E01C16244F6FF31C4F27B
:1027C000000188424FF0100314DD44F60041C4F2CA
:1027D0000001884222D0604528D043F60001C4F2AF
:1027E0000101884238D141F28801C4F202010B682C
:1027F0007DA22DE044F20041C4F2000188421DD0C8
:1028000044F60001C4F20001884225D141F288015A
:10281000C4F2020109680B0916E000BF41F2880109
:10282000C4F2020109688B090EE000BF41F2880181
:10283000C4F2020109688B0A06E000BF41F2880178
:10284000C4F2020109688B0844F6AC02C0F600022B
:1028500003F0030152F82130604542F20040C0F21B
:10286000F40015D0B6F5004F24D1082B4FF001012C
:1028700000F2B180DFE803F0066270AF68AFAFAF7F
:102880006E0000BFFEF7E4FF002840F05A805FE0D2
:10289000082B4FF0010100F29E80DFE803F0059C59
:1028A000259C1D9C9C9C2300FEF7D2FFC0B1D4F850
:1028B00024E019E0082B4FF0010100F28C80DFE8E2
:1028C00003F00567758A6D8A8A8A7300FEF7C0FF78
:1028D000002860D166E000BFFEF7E6FF0028E6D1E1
:1028E000002178E04FF4004044F69401C0F6000166
:1028F00031F81E106268B0FBF1F002EB4201884231
:102900004FF0010167D31303984264D8010E00020F
:1029100010EB520041F100010023FDF7DDFC4FF602
:10292000FF42A0F54071C0F20F02914204D8216825
:10293000C86000214FE000BF01214CE0FEF79EFF80
:1029400030B1D4F824E007E0FEF7AEFF0028F8D15C
:10295000002140E04FF4004044F69401C0F600012D
:1029600031F81E106268B0FBF1F0510801EB400035
:10297000B0FBF2F14FF6F070084007D0C1F342010E
:1029800022680843D060002125E000BF012122E039
:10299000FEF774FF30B1D4F824E007E0FEF784FFBF
:1029A0000028F8D1002116E04FF4004044F69401CD
:1029B000C0F6000131F81E10B0FBF1F0616800EBC9
:1029C0005100B0FBF1F080B2102803D32168C86039
:1029D000002100E001214FF00110A066002208460E
:1029E0002267626770BD00BF0100000004000000A4
:1029F00002000000080000002DE9F04106460068D2
:102A00001446C2690D461140491BB1FA81F14909CA
:102A1000A14256D1DDF81880B8F1000F24D018F18A
:102A2000010137D1C1692940491BB1FA81F1490936
:102A3000A14246D1C1692940491BB1FA81F1490936
:102A4000A1423ED1C1692940491BB1FA81F149092E
:102A5000A14236D1C1692940491BB1FA81F1490926
:102A6000A142DFD02DE000BFFEF7D8FA3068016840
:102A700021F4D0710160816821F001018160202082
:102A8000C6F88400C6F88800002086F8800003207D
:102A9000BDE8F0811F4600BFFEF7C0FAC01B4045ED
:102AA000E4D830680168490744BFC1695FEA015151
:102AB0000AD4C0692840401BB0FA80F04009A04207
:102AC000EAD00020BDE8F0814FF4006101620168A6
:102AD00021F4D0710160816821F001018160202022
:102AE000C6F88400C6F88800C6F88C00002086F876
:102AF00080000320BDE8F08140F2C400C2F2000073
:102B0000FFF730BAFEE7000080B582B0019040F2D6
:102B1000C400C2F2000001A901224FF0FF33FFF709
:102B200011FC019802B080BD88B0FEF78BFAFFF768
:102B3000D7FCFFF779FCFFF787FC9FED2B0B9FED90
:102B40002C1B51EC100B9FED2C0BCDE9061051EC1A
:102B5000110BCDE904109FED2A1B55EC100B9FEDD6
:102B60002A0B57EC116B4FF000085AEC109B0390A6
:102B7000404601F070FBDDE9063201F097FBDDE92C
:102B8000043201F093FB039A2B4601F08FFB41ECDA
:102B9000180BB0EE480AF0EE680A00F085FC51EC24
:102BA000100B32463B4601F081FBB0EE480AF0EED6
:102BB000680A83460C4600F013FC51EC100B3246B9
:102BC0003B4601F073FB4A46534601F013F941ECD2
:102BD000100B0FA041465A4623468DED000BFDF722
:102BE000F3FB08F10108C3E7000000000000703F9C
:102BF0000000000000001040182D4454FB21094043
:102C0000000000000000344000000000000014C07C
:102C100025642C25662C25660A0000005FEA400C1E
:102C200008BF91F0000F4FEA8C234FEAC12243EA1C
:102C300051514FEA1C5018BF00F5F0404FEA3000E8
:102C400018BF41F000415FEA6C5C00F02980BCF1E4
:102C5000FF3F08BF40F080407047130C06BF1204CE
:102C60004FF0100C4FF0000C130E04BF12020CF1C9
:102C7000080C130F04BF12010CF1040C930F04BFD6
:102C800092000CF1020CD30F04BF52000CF1010CA6
:102C900011464FF00002A0F11F00A0EB0C0070479E
:102CA00011F0004F08BF704731F000413FF4D5AF3D
:102CB0000B0C06BF09044FF0100C4FF0000C0B0E6C
:102CC00004BF09020CF1080C0B0F04BF09010CF141
:102CD000040C8B0F04BF89000CF1020CCB0F04BF56
:102CE00049000CF1010CCCF1200322FA03F341EA74
:102CF000030102FA0CF2A0EB0C0000F10100704796
:102D000023F07F4720F07F4C80EA030000F0004072
:102D1000ACEB070303F57C5303F1FF032DE9804976
:102D200009B44FEA144324EA03484FEA154B25EA55
:102D30000B4E0FF2042606EB13273E7803FB0667C3
:102D4000C7F5000707FB06F64FEAD64606F102066E
:102D50004FEA543707FB066CCCF1005C4FEA1C4786
:102D60002CEA074C0CFB06F507FB06F404EB1546B2
:102D70004FEA961649085FEA320234BF00204FF04E
:102D800000404FEAD13706FB07FC4FEA1C4C0CFB16
:102D90000BF7D21B03FB0CF761EB07010CFB0EF7E3
:102DA000B0EB074072EB17420CFB08F734BFA2EB05
:102DB0000742B2EB074261EB17414FEA0C444FEA7E
:102DC000910706FB07FC4FEA1C4C0CFB0BF7B0EB22
:102DD000C74072EB573203FB0CF734BFA2EBC7427C
:102DE000B2EBC74261EB57310CFB0EF7B0EBC700FB
:102DF00072EB57720CFB08F734BFA2EBC702B2EBC1
:102E0000C70261EB57714FEA816141EA92114FEAC3
:102E1000826242EA90124FEA806004EBCC04039F86
:102E20004FEAD13706FB07FC4FEA1C4C0CFB0BF7B3
:102E3000D21B03FB0CF761EB07010CFB0EF7B0EBA9
:102E4000074072EB17420CFB08F734BFA2EB0742B6
:102E5000B2EB074261EB17414FEA8C5504EB9C241F
:102E60004FEA910706FB07FC4FEA1C4C0CFB0BF7E3
:102E7000B0EBC74072EB573203FB0CF734BFA2EB49
:102E8000C742B2EBC74261EB57310CFB0EF7B0EB18
:102E9000C70072EB57720CFB08F734BFA2EBC702F6
:102EA000B2EBC70261EB57714FEA816141EA9211BF
:102EB0004FEA826242EA90124FEA806015EB4C259D
:102EC00044F100044FEAD13706FB07FC4FEA1C4CE3
:102ED0000CFB0BF7D21B03FB0CF761EB07010CFBA0
:102EE0000EF7B0EB074072EB17420CFB08F734BF4C
:102EF000A2EB0742B2EB074261EB17414FEA813187
:102F000041EA92414FEA823242EA90424FEA8030EF
:102F10004FEA0C7615EB1C1544F1000448EA034314
:102F20004EEA0B484FF0000EB2EB080C71EB0307B2
:102F300024BF624639464EEB0E0E4FF0000B0018D0
:102F4000524149414BEB0B0BB2EB080C71EB030701
:102F50007BF1000B24BF624639464EEB0E0E4FF05C
:102F6000000B0018524149414BEB0B0BB2EB080C24
:102F700071EB03077BF1000B24BF624639464EEB31
:102F80000E0E51EA020718BF46F0010616EB0E7648
:102F900055F1000254F1000103D5BDE88901BDE8F7
:102FA0000088BDE88901BDE80048B619524141EBEF
:102FB0000101A3F10103704780807F7E7D7C7B7AD5
:102FC0007978777676757473727171706F6E6E6DD5
:102FD0006C6C6B6A6A69686867666665646463637B
:102FE00062616160605F5F5E5E5D5D5C5C5B5B5A01
:102FF0005A5959585857575656555555545453536E
:1030000052525251515050504F4F4F4E4E4D4D4DC8
:103010004C4C4C4B4B4B4A4A4A4949494848484713
:103020004747474646464545454444444443434351
:1030300043424242424141419C46002B30D47700FA
:103040002BD04FEA37071CB503B44FF010004FF0F8
:103050001001BAF1000F06D0BCF1000FDCBF40F048
:10306000080040F008014FF000000FBCBDE8104020
:103070000BF1010BBBF1010F08BF5FEA170722BF7D
:1030800012F1010211F101014FF0004143F100037F
:1030900000F0004043EA00007047F9D35708D0E73A
:1030A00046EA06464FEA164613F1400F1FDD13F1BC
:1030B000200FDFBF16430A46002120335B42BED0FB
:1030C000C3F1200746EA06464FEA164602FA07F71A
:1030D00046EA070622FA03F2C3F1200701FA07F7CE
:1030E00042EA070221FA03F14FF00003A7E746EA9C
:1030F000020646EA06464FEA164646EA0106BCBF05
:1031000046EA0646360C4FF000034FF000024FF03F
:10311000000194E72DE9804C70B49A46934691E8FB
:10312000380007C831EA400C48BF34EA430C03D5E5
:10313000FFF7E6FDFFF780FFF0BCBDE8008C2DE94E
:10314000804C70B49A46934691E8380007C810F056
:10315000804F08BF13F0804F03D100F005F8FFF750
:103160006BFFF0BCBDE8008C20F07F4723F07F4C64
:1031700080EA030000F0004007EB0C03A3F57C534A
:10318000A3F1FE0392F0000F00F0B38095F0000F62
:1031900000F077802DE901494FEA114021EA00480B
:1031A0004FEA144624EA064700FB06FC08FB06F635
:1031B00007FB08F818EB06484CEB164C00FB07F72A
:1031C00018EB07484CEB17404FEA124B22EA0B4E24
:1031D0004FEA154625EA06470BFB06FC0EFB06F6F2
:1031E00007FB0EFE1EEB064E4CEB164C0BFB07F7D7
:1031F0001EEB074E4CEB174B18EB0B0840F1000091
:1032000018EB0E0B58EB000840F100008F1A4FF03E
:1032100000014FF000063CBFC943661B14BFB5EB6D
:10322000040C00213CBFC943F61B4FEA174427EAB0
:1032300004454FEA1C472CEA074C04FB076205FBD8
:1032400007F70CFB05F616EB074642EB174204FBAB
:103250000CFC16EB0C4642EB1C421BEB060658EB33
:10326000020241414EEA8E0E46EA9E0601D5BDE8B5
:103270000189B619524141EB0101A3F10103BDE8F7
:1032800001894FEA144524EA05464FEA114721EA2D
:10329000074C05FB07F406FB07F70CFB06F111EBE7
:1032A000074144EB174405FB0CFC11EB0C4144EBCC
:1032B0001C444FEA124722EA074C05FB07F206FBC3
:1032C00007F70CFB06F616EB074642EB174205FB29
:1032D0000CFC16EB0C4642EB1C456A1854F100013D
:1032E00048BF7047B619524141EB0101A3F10103F8
:1032F000704795F0000F37D04FEA114221EA02469D
:103300004FEA144724EA074C02FB07F106FB07F7D4
:103310000CFB06F414EB074441EB174102FB0CFCD9
:1033200014EB0C4441EB1C414FEA154725EA074CCE
:1033300002FB07F506FB07F70CFB06F616EB074644
:1033400045EB174502FB0CFC16EB0C4645EB1C420B
:10335000121951F1000148BF7047B619524141EBB3
:103360000101A3F1010370474FEA144524EA054621
:103370004FEA114721EA074C05FB07F106FB07F767
:103380000CFB06F212EB074241EB174105FB0CFC6C
:1033900012EB0C4251EB1C414FF0000648BF704746
:1033A000921841EB0101A3F10103704703B40198A6
:1033B0004100009850EAC12018BF04204A0D18BFF0
:1033C00040F0010040F2FF72B2EB515F08BF40F0E5
:1033D0000200012808BF052002B07047000000006D
:1033E00010B52F499FED2C1B2DED020B84B00598D5
:1033F00020F000408842D8BF9DED040B2DDD294907
:10340000884209D1049840B94FF00100FDF787F8D0
:1034100000F0A2FC06B010BD05DB9DED040B00F032
:103420008FFC06B010BD68469DED040B00F0A0F8BF
:1034300010F0030004BF9DED021B9DED000B0CD0AE
:1034400001280ED09DED021B9DED000B022817D028
:10345000012000F0DDFB06B010BD00F0A5FA06B0BB
:1034600010BD9DED021B9DED000B012000F0D0FB77
:1034700051EC100B00F0B2FC06B041EC100B10BD8B
:1034800000F092FA51EC100B00F0A8FC06B041ECF1
:10349000100B10BD00000000000000000000000044
:1034A000FB21E93F0000F07F10B52F499FED2C1B59
:1034B0002DED020B84B0059820F000408842DCBF5F
:1034C00000209DED040B32DD2849884209D1049883
:1034D00040B94FF00100FDF722F800F03DFC06B0C6
:1034E00010BD05DB9DED040B00F02AFC06B010BDFD
:1034F00068469DED040B00F03BF810F0030011D07E
:10350000012818D09DED021B9DED000B02281AD05A
:1035100000F04AFA51EC100B00F060FC06B041ECF0
:10352000100B10BD9DED021B9DED000B012000F066
:103530006FFB06B010BD9DED021B9DED000B00F072
:1035400033FA06B010BD012000F062FB51EC100B05
:1035500000F044FC06B041EC100B10BD0000000070
:103560000000000000000000FB21E93F0000F07FA8
:103570002DE9F14F04462DED020B2DED088B8AB09D
:103580009FEDE70B80ED020B139EE74826F0004508
:1035900085420ADC9DED120B002084ED000B0AB081
:1035A000BDEC088B03B0BDE8F08FE0489FEDE0ABC9
:1035B0009FEDE1BBA84247DDE14F9FEDE39B9FED0F
:1035C000E48B9DED120B53EC1A2B51EC100B002EDB
:1035D0001CDD00F075FF41EC100BBD4208D053EC30
:1035E0001B2B51EC100B00F06BFFC4E900010BE04A
:1035F00053EC192B51EC100B00F062FF53EC182B1D
:1036000000F05EFFC4E900010120C8E700F0F2FB12
:1036100041EC100BBD4208D053EC1B2B51EC100BAE
:1036200000F0E8FBC4E900010BE053EC192B51EC6E
:10363000100B00F0DFFB53EC182B00F0DBFBC4E9B0
:1036400000014FF0FF30AAE7C348A84279DB9DEDA7
:10365000120B51EC100B00F09FFB41EC180B9FED8F
:10366000C00B53EC102B00F021FE9FEDBF1B53EC61
:10367000112B00F0BFFB00F0BFFD074600F0EBFD93
:1036800041EC190B53EC1A2B00F010FE53EC182BE5
:1036900000F00AFF41EC180B53EC1B2B51EC190BFB
:1036A00000F004FEDFF8C8A241EC100B4FEA1558F9
:1036B0000125FA4453EC102B51EC180B00F000FFDD
:1036C000032DC4E900013DD0C1F30A5005EB4511BB
:1036D000A8EB00001139814234DA0AEB051BB0EE89
:1036E00048AA9BED000BF0EE68AA53EC102B51ECAE
:1036F000190B00F0DBFD41EC1B0B51EC1A0B53ECEA
:103700001B2B00F0DDFE41EC180B51EC1A0B53ECB7
:10371000182B00F0D5FE53EC1B2B00F0D1FE9BEDD7
:10372000020B41EC1A0B53EC102B51EC190B00F06F
:10373000BDFD53EC1A2B00F0C3FE41EC100B6D1CC9
:10374000B8E70EE0002EA8BF3846BFF628AF94EDCC
:10375000000B51EC100B00F041FBC4E90001784272
:103760001DE7C6F3130040F4801EC6F30A50A0F212
:10377000F530471100F01F05C5F12000DDF848B015
:1037800008900020069007900520EC467949002D0E
:1037900007EB0002794408BF51F8221009D051F814
:1037A000223001EB8201AB404A68089922FA01F10C
:1037B0001943A1FB0E26A1FB0B131A449A4234BFF6
:1037C0000123002303EB06080CEB8003D3E901A6D9
:1037D0000E448E4234BF0121002192448A4411B12B
:1037E000924502D903E0924501D2012100E0002177
:1037F000C3E901A641444CF82010011EA0F10100CC
:10380000C4DC029800F10050850F0298DDE90367DF
:103810008000DDF8148000F01EFD41EC1A0B3046EC
:1038200000F030FD9FED541B53EC112B00F03EFDDA
:1038300041EC1B0B384600F025FD9FED511B53EC6E
:10384000112B00F033FD41EC180B404600F01AFD3F
:103850009FED4D1B53EC112B00F028FD41EC190B93
:1038600051EC180B53EC192B00F0C4FA53EC1B2B42
:1038700000F0C0FA53EC1A2B00F0BCFACDE90801B5
:10388000002008909DED080B53EC1A2B51EC100B07
:1038900000F016FE53EC1B2B00F012FE53EC182B1D
:1038A00000F00EFE53EC192B00F0FEFD9FED381BCF
:1038B00053EC112B00F0FAFC9FED370B41EC180B89
:1038C00053EC102B9DED080B51EC100B00F0EEFCAF
:1038D00053EC182B00F08EFA9FED310B41EC180BD6
:1038E00053EC102B9DED080B51EC100B00F0DEFC9F
:1038F00053EC182B00F07EFA41EC100B139810F0EB
:10390000004F06D06D4251EC100B00F067FA41EC0D
:10391000100B284684ED000B41E60000000000007B
:103920000000000000000000FB21E93F7CD90240BC
:1039300000004054FB21F93F3163621A61B4D03D6D
:10394000FB21F93F000000000000601A61B4D03D87
:103950007370032E8A19A33BFB213941000000003C
:1039600083C8C96D305FE43F000000000000E03F05
:103970003A100000880F0000000000000000103E18
:10398000000000000000103C000000000000103AA1
:10399000182D4454FB21F93D3326A611460B113C4A
:1039A00000000054FB21F93D10B52DED040B2DED69
:1039B000088B82B0B0EE419AF0EE619A0B9820F03D
:1039C00000449FED4BABB4F1795F11DA9DED0A0B2A
:1039D00051EC100B00F010FC002801BFB0EE4A0AB9
:1039E000F0EE6A0A02B0BDEC088B04BF04B010BD53
:1039F0009DED0A0B53EC102B51EC100B00F056FC14
:103A000041EC180B3C480621B0EE480AF0EE680A7B
:103A1000784400F081F853EC182B51EC100B00F0B7
:103A200045FC9DED0A0B41EC1B0B53EC192B51ECA3
:103A3000100B00F03BFC41EC190B53EC1B2B51EC31
:103A4000180B00F033FC53EC192B00F039FD9FEDFF
:103A50002C0B41EC190B53EC102B51EC180B00F014
:103A600025FC41EC100B2848844210DA53EC192B4A
:103A700051EC100B00F024FD53EC1A2B00F014FD58
:103A800041EC100B02B0BDEC088B04B010BD1F4818
:103A9000A042BCBF9FED1E1B8DED001B06DBA4F5F5
:103AA00000100190002000909DED001B51EC100BC8
:103AB00053EC112B00F004FD9DED000B41EC180BB5
:103AC00053EC102B51EC1A0B00F0FAFC41EC1A0BE2
:103AD00053EC192B51EC180B00F0F2FC53EC1A2BA1
:103AE00000F0E2FC41EC100BCCE70000000000000D
:103AF000000000000000F03FAC0C000000000000DF
:103B0000000000000000E03F3333D33F0000E93FF6
:103B1000000000000000D23F70B504462DED028B7E
:103B20004D1E00EBC500B0EE408AF0EE608A90EDCD
:103B3000000B35F0060017D053EC182B51EC100B8E
:103B400000F0B4FB41EC100B6D1E04EBC50090EDD2
:103B5000001B51EC100B53EC112B00F04BF941EC16
:103B6000100B35F00600E7D1022D36D0042D1CD005
:103B7000062D1CBFBDEC028B70BD53EC182B51EC15
:103B8000100B00F093FB94ED0A1B53EC112B00F08B
:103B900031F953EC182B00F089FB94ED081B53EC22
:103BA000112B00F027F941EC100B53EC182B51ECC2
:103BB000100B00F07BFB94ED061B53EC112B00F077
:103BC00019F953EC182B00F071FB94ED040B53EC36
:103BD000102B00F00FF941EC100B53EC182B51ECAB
:103BE000100B00F063FB94ED021B53EC112B00F063
:103BF00001F953EC182B00F059FB94ED001B53EC2A
:103C0000112B00F0F7F8BDEC028B41EC100B70BDEE
:103C100031B504462DED040B2DED0A8BB0EE41BA03
:103C2000F0EE61BA0B989DED0A0B20F00040B0F168
:103C3000795F0DDA51EC100BFFF7B8FB042808BFD1
:103C400000F09AF89DED0A0BBDEC0A8B05B030BD73
:103C500053EC102B51EC100B00F028FB41EC180B2F
:103C60009DED0A0B53EC182B51EC100B00F01EFBD2
:103C700041EC190B2C48B0EE480AF0EE680A052119
:103C80007844FFF749FF9FED2ACBB0EE40AAF0EE53
:103C900060AA9CB353EC1C2B51EC190B00F006FBF3
:103CA00041EC1C0B53EC1A2B51EC190B00F0FEFAF3
:103CB0009FED210B41EC190B53EC102B51EC1B0B1E
:103CC00000F0F4FA53EC192B00F0FAFB53EC182B2C
:103CD00000F0ECFA53EC1B2B00F0F2FB53EC1C2B26
:103CE00000F0EEFB9DED0A1B53EC112B00F0DCFB0A
:103CF000BDEC0A8B05B041EC100B30BDFFE753EC77
:103D00001A2B51EC180B00F0D1FA53EC1C2B00F0DD
:103D100071F853EC192B00F0C9FA9DED0A1B53EC16
:103D2000112B00F067F8E3E73C0B000000000000F7
:103D3000495555555555C5BF000000000000E03FEE
:103D400010B553EC102B51EC100B00F053F841EC74
:103D5000100B10BD000000009FED050B10B553ECDB
:103D6000102B51EC100B00F0EDF841EC100B10BDD6
:103D700000000000000000009FED050B10B553ECA3
:103D8000102B51EC100B00F091FA41EC100B10BD10
:103D9000000000000000001082B0CDE9000121F019
:103DA000004001909DED000B02B051EC100B7047EC
:103DB00010B500290AD00878002807D005487844B3
:103DC000FCF77AFF002801D0002010BD024878449B
:103DD00010BD00002E0B0000260B000081F00041FA
:103DE000704780F00040704721F00041704720F09C
:103DF0000040704710B591EA030F48BF83F00043BD
:103E000000F16683841A71EB030C05D2121943EB9F
:103E10000C03001B61EB0C014FEA1154A4EB135C83
:103E2000DFF81CE11EEA430F18BF9EEA445F00F072
:103E3000748021EA045123EA0E0343F48013DCF179
:103E4000200E32D322FA0CFE10EB0E0023FA0CFEE9
:103E500041EB0E01CCF1200E03FA0EFE10EB0E002A
:103E6000CCF1200E51F10001B1F5801F32D201EBEF
:103E7000045112FA0EF2BDE8104058BF7047401CC2
:103E800038BF5FEA420218BF7047002814BF20F015
:103E9000010041F100014FEA410313F5001F38BF53
:103EA0007047A1F1C04100F0F9BA012A43EB0302C7
:103EB000ACF1200CDCF11F0E32BF4FF0000E23FAE4
:103EC0000CF310EB030041EB0451B4EB115FD0D0C5
:103ED000A1EB045101F58011490801EB04515FEA9F
:103EE00030000ED350F1000038BF12FA0EFE08D198
:103EF000BDE81040C9E7401C38BF5FEA4202CAD1A2
:103F0000C3E7BDE810404FEA410313F5001F38BF77
:103F10007047A1F1C04100F0C1BA9EEA445F08D0E9
:103F200011EA5E0FBDE8104004BF01F0004100201F
:103F30007047BDE8104070B500F062FA64FBBE3E09
:103F40000000E0FF2DE9C04130B4DFF8A4C23CEA34
:103F5000111418BF3CEA131400F0ED801CEA111490
:103F600081EA030544EAD57418BF1CEA131500F072
:103F7000C880A4EB050404F17F7404F500344FF00D
:103F8000004545EAC12145EAC32341EA505143EACD
:103F900052534FEAC0204FEAC222994208BF9042D2
:103FA00000F09D804FEA13650FF24416765D4FEAEC
:103FB000134506FB05F7C7F1807706FB07F74FEAC5
:103FC000D737A7FB03687642A7FB06CEC8F5803833
:103FD00038BFA8F1010807FB08E6A6FB028C4FF0EA
:103FE000000EE6FB03CEDCF1000CCEF1004E38BF34
:103FF000AEF1010EA6FB0C584FF00007E6FB0E8752
:10400000A1FB08C6A0FB07CE16EB0E064FF000057D
:1040100045F10005E1FB076515F1E04E7EBFA4F513
:1040200080345FEA46066D4116F1800745F10005D0
:104030004FEA172747EA05674FEA15254FEA066654
:10404000A6F1DE46B6F1805F20D9384605EBC47193
:1040500024F0010C01EB0C11BCF1FE6F02D8F0BC96
:10406000BDE8008124425CBF01F5801E9EEAC47F4A
:1040700002D4F0BCBDE80081244200F13980A1F1F6
:10408000C041F0BCBDE8004100F008BA4FEAD020C2
:1040900040EA41504FEAD1214FEAD22242EA43524C
:1040A0004FEAD323A7FB028607FB036605FB0266E4
:1040B0001EEA0E0F58BFA6EB0056B6EB00564FEAAD
:1040C000520E4EEAC37E18EB0E0E56EB530EBCD5C5
:1040D00018EB02085E417F1C55F10005B5E74FF46F
:1040E00080154FF000074FF000064FF00008ACE7D6
:1040F00001F1C04101F000414FF00000F0BCBDE80B
:1041000000810CEA131511EA0C1F00D00CE013EA31
:104110000C1F00F026804FF0000081EA030101F03F
:104120000041F0BCBDE80081F0BCBDE8004181EA7F
:10413000030100F0B3B9F0BCBDE8004170B500F078
:104140005FF900BF097EFC3E00F007B84FF00000A9
:1041500081EA030101F00041704781EA030100F0A8
:104160009DB9F0BCBDE8004122494FF00000704706
:10417000FFFDFBF9F7F5F4F2F0EEEDEBE9E8E6E42C
:10418000E3E1E0DEDDDBDAD8D7D5D4D3D1D0CFCDB3
:10419000CCCBCAC8C7C6C5C4C2C1C0BFBEBDBCBBEC
:1041A000BAB9B8B7B6B5B4B3B2B1B0AFAEADACABE7
:1041B000AAA9A8A8A7A6A5A4A3A3A2A1A09F9F9EC1
:1041C0009D9C9C9B9A999998979796959594939373
:1041D000929191908F8F8E8E8D8C8C8B8B8A89890A
:1041E000888887878685858484838382828181808D
:1041F0000000FF070000F87F4FEA41034FEA5353E6
:10420000A3F58063D3F11E03C8BFD3F1210C0CDDED
:104210004FF0004242EAC12242EA505232FA03FC15
:104220008CEAE17CACEBE1707047102BC4BF00203E
:10423000704703F5787CBCF1FF3F04D06FF000427B
:1042400082EA2100704770B500F0DAF849922480C4
:1042500000207047F2E710F0004248BF4042B0FA39
:1042600080F310FA03F10AD0C3F11D0303F5806354
:1042700002EB03524FEA415002EBD12170474FF05D
:1042800000007047B0FA80F310FA03F10AD0C3F1CE
:104290001D0303F580634FEA03524FEA415002EBDE
:1042A000D12170474FF000007047000070B5DFF873
:1042B00048C11CEA111E1EBF1CEA13159EEA0C0F12
:1042C00095EA0C0F00F06F8081EA03044EEAD47E79
:1042D000AE4421EA4C1123EA4C1341F4801143F41B
:1042E0008013AEF17F7EA1FB024CA0FB0365361963
:1042F00055EB0C05A1FB034C4CF10003A0FB021C89
:1043000016EB0C06654153F10003094218BF46F055
:10431000010613F4007F0BD14FEA03314FEA053059
:1043200041EA155140EA165034036FF003020AE0E7
:104330004FEAC3214FEAC52041EA555140EA5650A1
:10434000F4026FF0020202EB2E4201EB025585EA05
:10435000CE710AD05FEA440C18BF24F0004450F13B
:10436000000041F1000120EAD47040F2FE7C624579
:1043700000D270BDA84214BF4FF080444FF04044BB
:10438000002E08BF0024BEF1806FA8BFA1F1C0417C
:10439000BDE8704080F2828001F1C04101F000412F
:1043A0004FF0000070470CEA13159EEA0C0F18BF7F
:1043B00095EA0C0F06D081EA030E4FF000000EF0D4
:1043C000004170BD00F01CF88900013E00F007B804
:1043D00000F009B84FEA430C5FEA5C5C08D081EA60
:1043E000030100F05BB84FEA410C5FEA5C5CF6D178
:1043F00002494FF0000070470000FF070000F87FFF
:104400000EF1020E2EF0030E5EF8046B364205D458
:10441000012A43EB030515F5001F12D8012841EBD3
:10442000010C1CF5001F0CD80ED14FEAD17C0CEB0F
:104430004C0C0CF1020C15F5001F08BF4CEBD37CA3
:1044400004E04FF0080C01E04FEAD37C0CEB4C0584
:1044500026FA05F606F00706B6F1040C06D20EEBB6
:10446000860CBDE870404CF0010C6047DFE80CF0B2
:10447000090B02024FF00041A1F500214FF00000AE
:1044800070BD19461046012851EB010418BFD4F540
:10449000001484BF002001F0004170BD0808A0F5A1
:1044A00000114FEA3101704710B591EA030F81F016
:1044B00000413FF5A7AC83F0004300F009B80000CD
:1044C00010B591EA030F48BF83F000433FF59AAC63
:1044D000841A71EB030C07D28CF0004C121943EBD9
:1044E0000C03001B61EB0C014FEA1154A4EB135CAD
:1044F000DFF8A4E11EEA430F18BF9EEA445F00F014
:10450000B48021EA045123EA6E035242C3EB6E03E6
:1045100038BF5B1EDCF1200E25D322FA0CFE10EB17
:104520000E0043FA0CFE41EB0E01CCF1200E03FA13
:104530000EFE10EB0E00CCF1200E51F1000129D43B
:1045400001EB045112FA0EF2BDE8104058BF70475B
:10455000401C1CBFB2F1004F704700280CBF491C23
:1045600020F00100704712EB020E43EB030218BF6C
:104570004FF0010E4EEA4202ACF1200CDCF11E0EAF
:1045800056D943FA0CFE10EB0E00CCF11E0E51F181
:10459000FF31D5D50EF1010E12FA0EFE404141EB6E
:1045A000010101EB445C5FEA5C5C10D901EB045152
:1045B00010EBDE7038BFBEF1004FBDE8104018BFF1
:1045C000704700280CBF491C20F00100704734D20E
:1045D0004FEAD42C24F4006411F500111BD0B1FA79
:1045E00081F20B3AA41AA41ED2F12003914030FAB2
:1045F00003F31943904001EBCC7101EB0451002C03
:10460000BDE81040A8BF704701F1C04101F0004172
:104610004FF000007047B0FA80F310FA03F102D1B6
:10462000BDE810407047E41A173C4805C90AE2E7A4
:1046300001EB0451BDE81040704749104FEA3000CB
:1046400001EB0451BDE8104002E04FF0000170475B
:104650004A0008BF0042F8D0B2F5001F28BF7047DB
:1046600001F000414FF0000070479EEA445F07D020
:1046700011EA5E0FBDE8104004BF00210020704722
:10468000BDE8104070B5FFF7BBFE00BF40DFF63E4F
:10469000104683F0004170470000E0FFF1EE100A81
:1046A0004FF6FF71C0F2C03120EA010040F04070C7
:1046B000E1EE100A7047FCF769B800000000000046
:1046C0004C5555555555A53F7751C1166CC156BF30
:1046D0009015CB19A001FA3EAD529C804F7E92BE40
:1046E000C4B1B4BD9EEE213ED43888BEE9FAA8BD5F
:1046F00000004054FB21F93F3163621A61B4D03DA0
:104700000000601A61B4D03D7370032E8A19A33B78
:104710000000002E8A19A33BC14920259A837B39CA
:1047200000000000000000006E83F9A22915444E2D
:10473000D15727FCC0DD34F5999562DB4190433CAD
:10474000AB6351FE61C5BBDE3A6E24B7E0D24D4289
:10475000EA2E49061C92D1091CEB1DFE3EA729B189
:10476000F53582E88444BB2E26709CE9417E5FB417
:1047700039D69139F43953838B5F849C3B28F9BD3A
:10478000FF97F81F0F9805DE8B112FEF1F6D0A5A48
:10479000CF7E366DB709CB27663F464F2DEA5F9E29
:1047A000C7BA27757BF1E5EBF739073DEA92528AE4
:1047B000B15FFB6B085D8D1F4630035600000000A3
:1047C000A6F810111111813FD561C119A0012ABFAE
:1047D0007DFEB157E31DC73EEB9C2B8AE6E55ABE32
:1047E0007CD5CF5A3AD9E53D02400000000000A038
:1047F0000000000005400000000000C800000000AC
:104800000C4000000000409C000000001940000027
:104810000020BCBE0000000034400000BFC91B8E59
:1048200000000004B5400000504BCFD06607E2CF37
:10483000010000006C4100003E8251AADFEEA73467
:1048400001000000D9420000DCB5A0E23A301F9719
:10485000FFFFFFFFB4450000FD25A0C8E9A3C14F3D
:10486000FFFFFFFFFF3F000000000080000000008E
:10487000FF3F00000000008000000000000000007A
:104880000000000001020304060708090000000000
:1048900001020304010002000400060008000A00EF
:1048A0000C0010002000400080000001000000000B
:1048B00004000000020000000800000001010103E4
:1048C000070100000804020408010101084900086A
:1048D0000000002010000000140200081849000821
:1048E0001000002048070000300200081C000000F3
:1048F00043000000F8FFFFFF0C0000000E00000066
:104900000F0000002E000000100000000100000059
:084910000024F4000000000087
:04000005080001D915
:00000001FF
